:020000040800F2
:10000000C805002001010008B5260008632100088A
:100010002925000831030008A92C00080000000071
:10002000000000000000000000000000CD260008D5
:100030003108000800000000B72600083527000836
:100040001B0100081B0100081B0100081B01000820
:100050001B0100081B0100081B0100081B01000810
:100060001B0100081B0100081B0100081B01000800
:100070001B0100081B0100081B0100081B010008F0
:100080001B0100081B0100081B0100081B010008E0
:100090001B0100081B0100081B01000833080008B1
:1000A0001B010008C12700081B010008B527000834
:1000B000CD2700081B0100081B0100081B010008D8
:1000C0001B0100081B0100081B0100081B010008A0
:1000D0001B0100081B0100089D2C00081B010008E3
:1000E0001B0100081B0100081B010008DFF80CD0F1
:1000F00000F0D4F8004800473D2D0008C805002056
:100100000648804706480047FEE7FEE7FEE7FEE7B1
:10011000FEE7FEE7FEE7FEE7FEE7FEE7B1270008A1
:10012000ED00000840EA01039B0703D009E008C97D
:10013000121F08C0042AFAD203E011F8013B00F8AC
:10014000013B521EF9D27047D2B201E000F8012BF8
:10015000491EFBD270470022F6E710B513460A4647
:1001600004461946FFF7F0FF204610BD80EA010261
:1001700010B502F00043400022D04A001FD0010E0B
:1001800001EB1261C0F35600C2F3560240F40000C6
:1001900042F40002A0FB022000047F39140400D0C6
:1001A000401C50EA124001D44000491EC2B20C0665
:1001B00004EBD010401C4008802A02D003E000204D
:1001C00010BD20F00100002900DA0020184310BD06
:1001D000420005D0C0F3C7525242914201DC0020D8
:1001E000704700EBC1507047C10F80EAE0700844CF
:1001F000CA079623002100F022B800F0004220F048
:100200000040C10DC0F3160040F400007F2901DA60
:1002100000207047962903DCC1F19601C84001E037
:1002200096398840002AF4D0404270470029A8BF80
:100230007047401C490008BF20F00100704710B40F
:10024000B0FA80FC00FA0CF050EA010404BF10BCC4
:10025000704749B1CCF1200421FA04F411FA0CF1F1
:1002600018BF012121430843A3EB0C01CB1D4FEA2A
:1002700000614FEA102042BF002010BC704700EB25
:10028000C35010440029A4BF10BC7047401C490053
:1002900008BF20F0010010BC70470000064C074D5D
:1002A00006E0E06840F0010394E807009847103446
:1002B000AC42F6D3FFF71EFFA0300008C0300008A4
:1002C00070B5044600688168C943C90717D18168C1
:1002D00021F00101816000F0BFFD05460AE000BF8A
:1002E00000F0BAFD401B022804D920688068C04392
:1002F000C00706D020688068C043C007F0D0002047
:1003000070BDA06A40F01000A062E06A40F00100F9
:10031000E062012070BD000010B51021034800F01C
:1003200091FD012800D0002010BD00000008014010
:10033000FEE708B500210B4608E0009300BF009AD5
:10034000521C00920A2AF9DB491C89B28142F4D37B
:1003500008BD00F0F3B800002DE9F04700255D4C22
:1003600007462E464FF400584FF480494FF4004A98
:100370006D0827B1012F38D0022F4FD141E06168BD
:10038000204621F470016160616841F440116160B0
:100390000022414600F05BFD0220FFF7CAFF012268
:1003A0004146204600F053FD606820F47000606014
:1003B000606840F4000060600820FFF7BAFF414623
:1003C000204600F03FFD08B145F080053220FFF7E0
:1003D000B0FF6168204621F470016160616841F4FA
:1003E00040116160012241465EE06168204621F0D3
:1003F00070616160616841F040716160002249464E
:100400000AE06168204621F070416160616841F056
:10041000405161600022514600F019FD0220FFF7B3
:1004200088FF012F02D0022F1AD10CE00122494689
:10043000204600F00CFD606820F07060606060682D
:1004400040F000600BE001225146204600F0FFFC26
:10045000606820F070406060606840F0004060605C
:100460000820FFF766FF012F02D0022F09D101E01B
:10047000494600E05146204600F0E4FC08B145F052
:1004800080053220FFF755FF012F02D0022F0DD13A
:1004900014E06168204621F070616160616841F09C
:1004A000407161600122494600F0D1FC761CF6B231
:1004B000082EFFF45DAF2846BDE8F087616820464E
:1004C00021F070416160616841F04051616001223A
:1004D0005146E9E70010014070B5054600F08EF87E
:1004E00038B3CC21284600F01FF94421284600F0FB
:1004F0001BF9642000F050FB284600F07FF8CC2167
:10050000284600F011F9BE21284600F00DF92846D2
:10051000FFF722FF04462846FFF71EFF44EA0020AB
:1005200000B2FFF761FEBDE870406FF00301FFF716
:100530004FBE014870BD000000007AC4164988B162
:1005400001281BD0022825D10846496821F07041B6
:100550004160416841F04051416001225FEAC2318F
:1005600000F075BC0846496821F47001416041689B
:1005700041F44011416001225103F1E70846496806
:1005800021F070614160416841F040714160012299
:100590009103E5E7704700000010014070B5054683
:1005A000A1F10900042805D209291FD00A291FD06A
:1005B0000B291FD07F24284600F020F800281BD0EC
:1005C000CC21284600F0B0F84E21284600F0ACF8C7
:1005D0005521284600F0A8F80021284600F0A4F88C
:1005E00021462846BDE8704000F09EB81F24E2E78F
:1005F0003F24E0E75F24DEE770BD00002DE9F0470F
:10060000484C06004FF000054FF4167808D04FF420
:1006100080474FF40049012E28D0022E3FD131E00F
:100620006168204621F470016160616841F4401105
:1006300061604FF400570022394600F008FC404644
:10064000FFF777FE01223946204600F000FC1E200D
:10065000FFF76FFE606820F470006060606840F42F
:10066000000060600A20FFF764FE48E061682046F1
:1006700021F070616160616841F040716160002249
:1006800039460AE06168204621F070416160616886
:1006900041F0405161600022494600F0D8FB4046DD
:1006A000FFF747FE012E02D0022E08D102E0012200
:1006B000394601E001224946204600F0C8FB1E20D1
:1006C000FFF737FE012E02D0022E10D107E060683E
:1006D00020F070606060606840F0006006E0606874
:1006E00020F070406060606840F0004060600A2068
:1006F000FFF71FFE012E02D0022E08D101E039467D
:1007000000E04946204600F09DFB00B901254FF46A
:10071000F070FFF70EFE3046FFF710FF2846BDE8E9
:10072000F0870000001001402DE9F0473F4C0D46D6
:10073000070004D0012F0CD0022F1AD111E06068FD
:1007400020F470006060606840F440106060002633
:100750001AE0606820F070606060606840F040708F
:1007600006E0606820F070406060606840F04050D3
:100770006060002647B14FF480484FF40049012FD4
:1007800010D0022F16D110E04FF40058002241463D
:10079000204600F05CFB0220FFF7CBFDE80711D0FC
:1007A000012210E00022414601E000224946204695
:1007B00000F04DFB0220FFF7BCFD012F0BD0022FF4
:1007C00019D10FE000224146204600F040FB3C20BA
:1007D000FFF7AFFD17E0E80701D0012200E000229B
:1007E000414605E0E80701D0012200E00022494629
:1007F000204600F02CFB3C20FFF79BFD012F02D090
:10080000022F08D102E00122414601E001224946BF
:10081000204600F01CFB6D080220FFF78AFD761CC5
:10082000F6B2082EA6D3BDE8F08700000010014004
:10083000704710B5202000F009FABDE810404020B4
:1008400000F004BA72B6FEE7F8B50024009490F800
:1008500024202546012A12D0012280F824204A684B
:100860001F23072A0DD20668776B521E02EB820205
:1008700093409F430B6893401F43776319E0022026
:10088000F8BD06680D2A0AD2376BD21F02EB82022E
:1008900093409F430B6893401F43376309E0F76A17
:1008A0000D3A02EB820293409F430B6893401F4333
:1008B000F7620A68072306680A2A0AD3F7680A3A21
:1008C00002EB420293409F438B6893401F43F760C3
:1008D00008E0376902EB420293409F438B689340E4
:1008E0001F4337610A68102A01D0112A20D1124B08
:1008F00002689A4217D193681B0219D4936843F493
:10090000000393600968102912D10C490C4A096848
:10091000B1FBF2F101EB8101490000E0491E0091B9
:100920000029FBD104E0816A41F0200181620124A9
:1009300080F824502046F8BD0024014034000020F7
:1009400040420F002DE9F0414FF0000704003D4602
:100950007ED0A06A002628B9E66284F8246020468A
:1009600000F07EF82046FFF7ABFCA16AC90600D470
:1009700020B1A06A40F01000A06269E0A16A21F4F1
:10098000885141F00201A1626268E169237B0A4358
:1009900047EA43010A43A1684FF48077B94209D07E
:1009A000012907D05FF0000194F814C0BCF1010FD9
:1009B00002D00AE03946F7E7F3B1A36A43F0200317
:1009C000A362E36A43F00103E3622368D3F804C03F
:1009D0002CF4694C4CEA010CC3F804C021688B6804
:1009E000DFF870C003EA0C0313438B60A168B942BF
:1009F0000BD0012909D00CE0DFF85CC0A3690CEB37
:100A000043330B4343F40061DFE7218A0D05A5F56D
:100A100080152168CB6A23F470032B43CB622168D5
:100A200089680E4B1940914208D1E662A16A21F013
:100A3000020141F00101A162BDE8F081A06A20F04D
:100A4000020040F01000A062E06A40F00100E062A5
:100A50000120F1E7FDF7E1FF00E0FFFFFE0E1FFFC1
:100A600000B585B0002100910191029103910068C9
:100A70000E49884218D10E48816941F400718161A4
:100A8000816901F400710491816941F0040181617F
:100A90008069694600F00400049002200090032061
:100AA0000190044800F0DEF805B000BD00240140CC
:100AB000001002400008014010B590F821100022FB
:100AC000022905D00421816380F82020012010BD77
:100AD00001680B6823F00E030B6001680B6823F0BC
:100AE00001030B6090F84030C46B012101FA03F35D
:100AF000636080F8211080F82020104610BD0000AF
:100B000010B590F821100024022903D0042181633C
:100B100001243DE001680A6822F00E020A600168C3
:100B20000A6822F001020A601A4A0168914201D162
:100B3000012121E0174A1432914201D110211BE01A
:100B4000144A2832914201D1891515E0114A3C32EC
:100B5000914201D189140FE00E4A5032914202D1E4
:100B60004FF4803108E00B4A6432914202D14FF4D5
:100B7000801101E04FF08071064A083A516001216E
:100B800080F82110002180F82010416B01B18847C6
:100B9000204610BD0800024070B5044600F05CF924
:100BA0000546601C02D004480078044400F054F963
:100BB000401BA042FAD370BD280000202DE9F04769
:100BC0001C490978002915D11B4D2978002911D01D
:100BD00000241A4A01271A4EDFF86880DFF868906F
:100BE000202809D0402805D14021104600F02AF9DC
:100BF00088B1F470BDE8F0872021104600F022F99A
:100C000008B1B470F6E7B77028780028F2D098F8E9
:100C1000000040B1EEE7F77028780028EAD098F895
:100C200000000128E6D101F099FC2C70A9F80040E1
:100C3000E0E7000002000020000000200008014062
:100C4000160000200100002004000020044910B517
:100C50000A68024202D00860FFF7B0FF10BD000032
:100C6000140401402DE9F84FDFF8B8910024A9F1F0
:100C7000040B23460F2709F1040AABF1040EC9E067
:100C80000125A5402A40AA427DD1674ED1F804C073
:100C9000ACEB0608B44532D014DCBCF1030F3AD0FB
:100CA00009DCBCF1000F2AD0BCF1010F1CD0BCF153
:100CB000020F31D11DE0BCF1110F17D0BCF1120FA2
:100CC0002AD119E0B8F5881F19D006DCB8F5803FA5
:100CD00015D0B8F5801F1FD111E0B8F5001F0ED058
:100CE000B8F5041F18D10AE0CB6815E0CB681B1DCE
:100CF00012E0CB6808330FE0CB680C330CE08B6854
:100D00002BB1012B4FF0080303D0456104E004230D
:100D100002E0056100E00023FF2A01D8064601E059
:100D200000F104064FEA840501D9A5F12005D6F8A3
:100D3000008007FA05FC28EA0C0803FA05F548EAE2
:100D40000508C6F800804D68ED0062D5374DAE69E4
:100D500046F00106AE61AD6924F0030605F0010519
:100D60000095334D06EB050CDCF80850A607360F4E
:100D700007FA06F825EA0805DFF8B880404503D1F0
:100D80004FF0000817E044E0DFF8AC80404502D1A6
:100D90004FF001080FE0DFF8A480404502D14FF08A
:100DA000020808E0DFF89880404502D14FF00308C0
:100DB00001E04FF0040808FA06F848EA0508CCF804
:100DC00008804D68D9F80060ED024D4601D5164304
:100DD00000E096432E604D68DAF80060AD0255469B
:100DE00001D5164300E096432E604D68DBF80060A5
:100DF000AD035D4601D5164300E096432E604D6875
:100E0000DEF80060ED03754601D5164300E0964319
:100E10002E60641C0D682A46E5407FF431AFBDE8C2
:100E2000F88F00000804014000001110001002407B
:100E30000000014000080140000C0140001001408A
:100E4000001401408068084000D0012070470AB1BA
:100E5000016170470904FBE70148806870470000A2
:100E600028000020024881680278114481607047A0
:100E700028000020074810B5016841F0100101600A
:100E8000032000F075F80F2000F006F800F024F8B9
:100E9000002010BD0020024070B50D4D04464FF4F7
:100EA0007A712878B1FBF0F00A490968B1FBF0F0DB
:100EB00000F052FB48B9102C07D200222146501EE8
:100EC00000F036F800206C6070BD012070BD00009D
:100ED00028000020340000200C4808B5816941F04A
:100EE00001018161816901F001010091C16941F055
:100EF0008051C161C06900F0805000900448416891
:100F000021F0E06141F00071416008BD0010024035
:100F100000000140002809DB00F01F020121914080
:100F20004009800000F1E020C0F800117047000087
:100F3000F0B40E4B1B680C46C3F30223C3F1070544
:100F4000042D00D90425191D072901D2002300E032
:100F5000DB1E012606FA05F1491E214099409E40FC
:100F6000761E16403143F0BC01F09FBE0CED00E050
:100F7000064900F0070208684FF6FF03184040EAF0
:100F80000220034A10430860704700000CED00E0A7
:100F90000000FA052DE9F84305460078354CC007F6
:100FA00054D0E0690026C00008D4E06940F08050C9
:100FB000E061E069012600F0805000902E48016851
:100FC000C90512D40168804641F480710160FFF7C1
:100FD00043FF074605E000BFFFF73EFFC01B642844
:100FE00023D8D8F80000C005F6D5206A10F4407068
:100FF00021D0A98801F4407181421CD0206A1F4988
:10100000012220F440700A6000220A602062C007BA
:1010100011D0FFF721FF074641F2883808E000BFF2
:10102000FFF71AFFC11B414502D90320BDE8F88331
:10103000206A8007F4D5206A696820F4407008436C
:1010400020621EB1E06920F08050E06128788007BE
:1010500005D56068A96820F440400843606028789E
:10106000C00605D56068E96820F480000843606028
:101070000020DBE7001002400070004040044242C4
:101080002DE9F0470F46050061D0434E306800F06F
:101090000700B84209D2306820F0070038433060BA
:1010A000306800F00700B84251D128683B4C8107F6
:1010B00012D5400703D5606840F4E060606028788E
:1010C000000703D5606840F4605060606068A968FC
:1010D00020F0F000084360602878C00728D06868D6
:1010E000012810D02168022810D0890700292EDAA3
:1010F000616821F0030101436160FFF7ADFE8046A6
:1011000041F288390DE021688903EFE78901EDE7B5
:10111000FFF7A2FEA0EB0801494502D90320BDE874
:10112000F0876068696800F00C00B0EB810FEFD1C8
:10113000306800F00700B8420BD9306820F0070093
:1011400038433060306800F00700B84201D0012019
:10115000E5E72878400705D56068E96820F4E06095
:10116000084360602878000706D56068296920F484
:10117000605040EAC100606000F038F86168084AD9
:10118000C1F30311515CC840064908600648006875
:10119000FFF782FE0020C2E700200240001002405C
:1011A00086300008340000202C0000200448054947
:1011B00000684968044AC1F30221515CC840704785
:1011C0003400002000100240963000080448054911
:1011D00000684968044AC1F3C221515CC8407047A5
:1011E0003400002000100240963000080E4A51687A
:1011F0000E4801F00C03042B11D0082B0FD10C4822
:10120000C1F38343C903C05C0AD55168084AC1F3DE
:101210004041921E515C054A5043B0FBF1F07047CB
:1012200004494843704700000010024000127A0051
:101230007630000800093D002DE9F84F040070D019
:101240002078C04DC00749D06868C0F381000128EC
:1012500007D06868C0F38100022809D16868C0031C
:1012600006D52868800339D560680028E7D035E0C6
:101270006068B0F5803F0BD010B1B0F5A02F11D051
:10128000286820F480302860286820F4802002E05C
:10129000286840F480302860606890B1FFF7DCFD7A
:1012A00006460AE0286840F480202860F0E700BF86
:1012B000FFF7D2FD801B642873D828688003F7D518
:1012C0000CE0FFF7C9FD064605E000BFFFF7C4FDCF
:1012D000801B6428F0D828688003F7D420789A4EC1
:1012E00080074FF001094FF0000839D5686810F009
:1012F0000C0F07D06868C0F38100022809D1686824
:10130000C00306D42868800714D52069012808D1B5
:1013100010E02069B0B1C6F80090FFF79DFD0746C8
:1013200005E00AE1FFF798FDC01B0228C4D8286831
:101330008007F7D52868616920F0F80040EAC1000D
:1013400028600DE0C6F80080FFF786FD074604E040
:10135000FFF782FDC01B022823D828688007F7D436
:10136000207800072CD57948A169D9B1C0F8009040
:10137000FFF772FD074604E0FFF76EFDC01B022871
:101380000FD8686A8007F7D571484FF4FA510068A2
:10139000B0FBF1F0009000BF0098411E0091FAD21E
:1013A0000EE080E0C0F80080FFF756FD074604E03D
:1013B000FFF752FDC01B022875D8686A8007F7D472
:1013C0002078400760D5E8690027C00008D4E869A4
:1013D00040F08050E861E869012700F080500090FB
:1013E0005C480168C90513D40168834641F48071E3
:1013F0000160FFF731FD824606E000BFFFF72CFDDC
:10140000A0EB0A0064284ED8DBF80000C005F5D533
:10141000E06801280AD008B1052813D0286A20F016
:1014200001002862286A20F0040002E0286A40F0E7
:1014300001002862E06841F2883B98B1FFF70CFD9B
:1014400082460BE0286A40F004002862EEE700BF05
:10145000FFF702FDA0EB0A0159455AD8286A800718
:10146000F6D50CE0FFF7F8FC824605E0FFF7F4FC48
:10147000A0EB0A0159454CD8286A8007F6D41FB161
:10148000E86920F08050E861E06988B36968C1F3D9
:101490008101022944D00228C6F8608004D0FFF7F9
:1014A000DBFC044638E034E0FFF7D6FC074604E0F6
:1014B000FFF7D2FCC01B02282BD828688001F7D484
:1014C000206AB0F5803F05D16868A16820F400303B
:1014D00008436860D4E908010843696821F474117D
:1014E00008436860C6F86090FFF7B6FC044606E063
:1014F00025E000BFFFF7B0FC001B022809D82868D0
:101500008001F7D51BE000BFFFF7A6FC001B0228F7
:1015100002D90320BDE8F88F28688001F4D40EE0DA
:101520000128F7D06868226A00F48031914204D122
:10153000616A00F47010884201D00120EAE70020BF
:10154000E8E70000001002400000424280044242EE
:10155000340000200070004010B5401EB0F1807FC4
:1015600001D3012010BD4FF0E02460610F2160170E
:1015700001F09BFB0020A06107202061002010BD2E
:101580007047704710B590F83C20012A22D0012204
:1015900080F83C20CA688C6822F4407222434C6870
:1015A00022F4806222430C6822F4006222430C6918
:1015B00022F4805222434C6922F400522243C9692A
:1015C000002322F480420A4301684A6480F83C30D8
:1015D000002010BD022010BD70B590F83C20012AFB
:1015E00026D0012480F83C40022280F83D20036888
:1015F0005A689D6822F070060A6832435A600D4BA3
:1016000002689A4208D0B2F1804F05D00A4B9A4244
:1016100002D00A4B9A4204D1496825F0800319434D
:10162000916080F83D40002180F83C10084670BD74
:10163000022070BD002C0140000400400008004062
:1016400010B5040003D094F83D0010B107E001206C
:1016500010BD002084F83C00204600F01FF8022056
:1016600084F83D00211D206801F0B6F8012084F8BF
:10167000460084F83E0084F83F0084F8400084F877
:10168000410084F8420084F8430084F8440084F860
:10169000450084F83D00002010BD000008B51E4A3A
:1016A00001681E48914216D1816941F4006181614F
:1016B0008069002200F40060009011461920FFF7B5
:1016C00037FC1920FFF726FC002211461B20FFF7EC
:1016D0002FFC1B201CE0B1F1804F0BD0104A91422F
:1016E00007D1C16941F00201C161C06900F0020087
:1016F000009008BDC16941F00101C161C0690022CB
:1017000000F00100009011461C20FFF711FC1C2086
:10171000BDE80840FFF7FEBB002C0140001002406E
:101720000004004090F83D10012901D001207047CD
:10173000022180F83D100168CA6842F00102CA60C7
:1017400000680B49884208D0B0F1804F05D00949A4
:10175000884202D00849884204D1816801F007011B
:10176000062903D0016841F00101016000207047A3
:10177000002C0140000400400008004070B5044601
:1017800090F83C000025012817D0012684F83C6021
:10179000022084F83D002068826822F0770222F45B
:1017A0007F4282600868502838D00DDC20284FD056
:1017B00005DC90B3102811D14AE0022070BD30281A
:1017C00046D040280AD13BE060282FD070280DD0A9
:1017D000B0F5805F03D0B0F5005F12D0012584F82A
:1017E0003D60002084F83C00284670BDCB68D1E9FC
:1017F0000121206801F039F82068816841F0770103
:1018000009E0CB68D1E90121206801F02EF82068B9
:10181000816841F480418160E1E719E0CA68496864
:10182000206801F0D7F85021206806E0CA684968AE
:10183000206801F0E0F86021206801F020F8CEE790
:10184000CA684968206801F0C5F840212068F4E7BB
:10185000226801461046F0E770472DE9F041044642
:101860000068C66805694FF00007A90713D5B107DE
:1018700011D5F91E01610120207720688069800759
:10188000204602D0FFF7E8FF04E000F0C9F8204648
:1018900000F05BF92777680716D5700714D5216823
:1018A0006FF004000861022020772068806910F43E
:1018B000407F204602D0FFF7CFFF04E000F0B0F8F1
:1018C000204600F042F92777280715D5300713D5B1
:1018D00021686FF008000861042020772068C06943
:1018E0008007204602D0FFF7B7FF04E000F098F829
:1018F000204600F02AF92777E80616D5F00614D519
:1019000021686FF010000861082020772068C06906
:1019100010F4407F204602D0FFF79EFF04E000F065
:101920007FF8204600F011F92777E80708D0F00784
:1019300006D021686FF001000861204600F08CF9A4
:10194000280608D5300606D521686FF080000861AA
:101950002046FFF715FE680608D5700606D52168F3
:101960006FF040000861204600F09CF9A8060AD5F7
:10197000B00608D521686FF0200008612046BDE858
:10198000F041FFF7FEBDBDE8F081000000B585B075
:10199000002100910191029103911B4B02681B48A9
:1019A00002219A4211D1826942F004028261806967
:1019B000039100F0040004908802CDE9000169461B
:1019C0001348FFF74FF905B000BD124B9A42FAD108
:1019D000826942F008028261806900F00800049088
:1019E0002020CDE900010320039069460A48FFF753
:1019F00039F90A48416821F4406141F0E06141F45D
:101A000000614160DFE70000002C0140001002404F
:101A10000008014000040040000C014000000140AB
:101A2000704770B5044690F83C0000260D4601282A
:101A30000FD0012084F83C006AB1042A1DD0082A86
:101A40002FD00C2A3FD00126002084F83C003046DD
:101A500070BD022070BD206800F01AFF2068816907
:101A600041F0080181612068816921F004018161F0
:101A7000206881692A69114311E0206800F030FF75
:101A80002068816941F4006181612068816921F4E5
:101A900080618161206881692A6941EA022181614E
:101AA000D2E7206800F048FF2068C16941F00801D2
:101AB000C1612068C16921F00401C1612068C16968
:101AC0002A69114311E0206800F062FF2068C169B3
:101AD00041F40061C1612068C16921F48061C16184
:101AE0002068C1692A6941EA0221C161ACE710B5E9
:101AF000040003D094F83D0010B107E0012010BDB0
:101B0000002084F83C00204600F01EF8022084F8F3
:101B10003D00211D206800F05FFE012084F8460092
:101B200084F83E0084F83F0084F8400084F84100C7
:101B300084F8420084F8430084F8440084F84500A7
:101B400084F83D00002010BD7047704710B5044672
:101B5000022249B104290ED0082913D094F841007B
:101B6000012816D0012010BD94F83E000128F9D1BB
:101B700084F83E200FE094F83F000128F2D184F869
:101B80003F2008E094F840000128EBD184F8402081
:101B900001E084F841200122206800F059FE0F493D
:101BA0002068884203D1426C42F4004242642068BB
:101BB000884208D0B0F1804F05D00949884202D050
:101BC0000849884204D1816801F00701062903D041
:101BD000016841F001010160002010BD002C0140AE
:101BE000000400400008004030B504460D4600687F
:101BF000002200F02DFE174B41F2111120688A10CF
:101C0000984209D1036A0B4206D1036A134203D1F9
:101C1000436C23F4004343642068036A0B4206D1FB
:101C2000016A114203D1016821F001010160012024
:101C30003DB1042D08D0082D09D084F841000020C2
:101C400030BD84F83E00FAE784F83F00F7E784F8F7
:101C50004000F4E7002C014070B500680C49884250
:101C600015D10C4C2078002811D00B4D2878002875
:101C70000DD00A480168491C0160006808490968DC
:101C8000884204D300F06AFC00202870207070BDE8
:101C9000002C014002000020000000200C00002069
:101CA000080000207047704770470000F8B50168D1
:101CB00004460868CA684B6910F00F0F4FF0000522
:101CC00059D003F0010602F49077374365D0C1077D
:101CD00005D0D10503D5616C41F001016164410774
:101CE00005D5D90703D0616C41F002016164810719
:101CF00005D5D90703D0616C41F004016164010787
:101D000007D502F02001314303D0616C41F0080196
:101D10006164616C00293AD0800604D5900602D532
:101D2000204600F0A9FE20684069616CC0F3801075
:101D3000090700D460B3204600F077FE20684069B0
:101D4000400621D52068143050E8001F21F04001E2
:101D500040E80012002AF5D1E06BA8B16D4941635B
:101D6000E06BFEF7CDFE002811D0E06B416B01B0B7
:101D7000BDE8F040084783060FD593060DD52046F1
:101D8000BDE8F84000F078BE2046FFF78DFFF8BDB3
:101D90002046FFF789FF6564F8BD266B2023012EDE
:101DA0007CD1C6067AD5D60678D5086848680090F2
:101DB00048694FF00206400640D5E16B086840686C
:101DC0000004000CE8D0A28D8242E5D9E085886944
:101DD00020282DD020680C3050E8001F21F480719D
:101DE00040E80012002AF5D12068143050E8001FA6
:101DF00021F0010140E80012002AF5D120681430DA
:101E000050E8001F21F0400140E80012002AF5D1FF
:101E100084F84230256320680C3050E8001F21F020
:101E2000100140E80012002AF5D1E06BFEF744FEF5
:101E30006663A08DE18D401A81B22AE0A08DE18D0C
:101E4000401A81B2E08D0028A6D00029A4D02268D3
:101E50000C3252E8000F20F4907042E80007002F87
:101E6000F5D12068143050E8002F22F0010240E83C
:101E70000027002FF5D184F84230256320680C300C
:101E800050E8002F22F0100240E80023002BF5D18B
:101E900066632046FFF707FFF8BDFFE705062BD571
:101EA000150629D594F841002128F5D1A068B0F590
:101EB000805F01D12069B0B1206A411C2162216894
:101EC00000784860E08C401E0004000CE084E3D100
:101ED0002068C16821F08001C1602068C16841F0BC
:101EE0004001C160D8E7206A0088C0F3080048605C
:101EF000206A801C2062E5E74006CDD55006CBD590
:101F0000CA68204622F04002CA6084F8413000F0DE
:101F100027F9C1E71B2A000870B5040004D094F823
:101F20004100002510B106E0012070BD84F840504A
:101F3000204600F023F8242084F841002068C1687E
:101F400021F40051C160204600F0F8FD20680169CD
:101F500021F4904101612068416921F02A01416129
:101F60002068C16841F40051C1606564202084F894
:101F7000410084F842006563002070BD30B585B033
:101F80000024009401940294039400681849884244
:101F90002BD11848C16941F40031C161C16901F414
:101FA00000310491816941F0040181618069124D21
:101FB00000F004000490042000900220019003200F
:101FC000039069462846FEF74DFE0820CDE900043F
:101FD000694628460294FEF745FE00221146262057
:101FE000FEF7A6FF2620FEF795FF05B030BD0000E6
:101FF00000440040001002400008014090F84230C8
:10200000202B01D00220704721B11AB100230363B5
:1020100000F0F0BD01207047F0B400682449884208
:1020200044D124480678024601239179547A062542
:102030000022072E2FD2DFE806F004080C14172028
:102040003500FE2927D1037025E0FE2907D10221A2
:102050000EE041728272032901D3032108E002706D
:1020600019E0C171042103E00172032C02D905219A
:10207000017010E0057043700DE0837A402B04D2AC
:102080000D4AD1545B1C837200E00270D9B2E41E89
:10209000A14200DB0570F0BC06490122891D0748FA
:1020A000FFF7ACBFFA29DAD14370D8E7F0BC70472C
:1020B000004400401600002038000020800100206D
:1020C0002DE9F843044690F84100984616460D461F
:1020D000202802D00220BDE8F88385B17EB100201F
:1020E0006064212084F84100FEF7B6FEA684814694
:1020F000E684A0682027B0F5805F02D003E00120CD
:10210000E9E7206910B12E4600250EE000260CE01C
:102110008021204600F089FDA8B9C6B116F8010B50
:1021200021684860E08C401EE084E08C4B464FF014
:102130000002CDF800800028EAD14FF0400120468F
:1021400000F073FD40B184F841700320C3E735F817
:10215000020BC0F30800E3E784F841700020BAE7FF
:102160007047FEE73EB500241048009401940294A5
:102170000D498460016004730475012505614FF405
:1021800060214460C161FEF7DDFB08B1FEF75AFB38
:102190000095CDE9015469460448FEF755FB002837
:1021A00001D0FEF74FFB3EBD002401407800002027
:1021B0002DE9F04786B00024514800940194029420
:1021C0000394816941F010018161816901F010017E
:1021D0000491816941F020018161816901F0200150
:1021E0000491816941F004018161816901F0040178
:1021F0000491816941F0080181618069DFF80481FF
:1022000000F00800049000224FF460414046FEF7C1
:102210001EFEDFF8F4A0002249F201115046FEF73D
:1022200016FEDFF8E89000224DF201014846FEF765
:102230000EFE4FF4204001250327CDE90005CDE92E
:10224000024769464046FEF70DFDA8030226CDE988
:102250000005CDE9024669464046FEF703FD0396B8
:102260000095CDE9015469465046FEF7FBFC10206D
:102270008DE8310069465046FEF7F4FC602000907E
:102280002348CDE9010569465046FEF7EBFC41F2D3
:102290000100CDE90005CDE9024669464846FEF752
:1022A000E1FC6803CDE90004694648460294FEF764
:1022B000D9FCB803CDE90005CDE902476946484697
:1022C000FEF7D0FC4FF48850CDE90005CDE9024778
:1022D00069465046FEF7C6FCE8038DE86100694692
:1022E00050460396FEF7BEFC002211461720FEF76B
:1022F0001FFE1720FEF70EFE06B0BDE8F0870000B7
:10230000001002400010014000080140000C014094
:102310000000311010B596B000240F941094119461
:10232000129413941C2108A81494FDF714FF202183
:102330006846FDF710FF2848264901604721C0E99B
:1023400001144FF41C71C0E9031444618461FFF768
:1023500077F908B1FEF776FA4FF480500F900FA985
:102360001D48FFF70BFA08B1FEF76CFA1A48FFF7A1
:10237000BEFB08B1FEF766FA139413A9164814942D
:10238000FFF72AF908B1FEF75DFA602008900A20ED
:10239000CDE909040C940D940C2208A90E480E9462
:1023A000FFF73FFB08B1FEF74DFA00944FF40050E1
:1023B000CDE90440029401940394694606480794C9
:1023C000FFF7E0F808B1FEF73DFA0348FFF7DEFA41
:1023D00016B010BD002C0140A800002010B586B03A
:1023E00000241648009401940294039404944FF03E
:1023F00080410594016041F61F41C0E90114632149
:10240000C0E903148461FFF71BF908B1FEF71AFA5B
:102410004FF48050009069460848FFF7AFF908B1C3
:10242000FEF710FA049404A904480594FFF7D4F8C1
:10243000002801D0FEF706FA06B010BDF00000201B
:1024400010B58EB000240794089409940A940B9454
:102450001C2168460C94FDF77EFE1E481C49016055
:102460004721C0E9011440F2E731C0E90314846157
:10247000FFF7E6F808B1FEF7E5F94FF48050079052
:1024800007A91448FFF77AF908B1FEF7DBF91148FC
:10249000FFF72DFB08B1FEF7D5F90B940BA90D48FA
:1024A0000C94FFF799F808B1FEF7CCF96020CDE95C
:1024B000000402940422694606480494FFF7B1FA26
:1024C00008B1FEF7BFF90348FFF760FA0EB010BD80
:1024D00000040040380100200C4810B50A49016092
:1024E0004FF4E1314160002181600C22C160C0E9FC
:1024F00004128161C161FFF70FFD002803D0BDE820
:102500001040FEF79FB910BD00440040800100203C
:1025100040F6B831884200D908464FF496725043CD
:10252000B0FBF1F080B27047FEE7000010B5044642
:1025300008480078A0420BD00C210748FFF754FB55
:10254000204600F0C5F82046BDE8104000F070B805
:1025500010BD000010000020A80000200122110280
:102560000148FEF774BC0000000801402DE9F0416D
:102570000A4C15460746A1600020E0600126A670BF
:10258000384600F02BF8284600F04AF800F008F82A
:102590002670A5806770BDE8F08100000000002073
:1025A00000224FF480710148FEF751BC0008014041
:1025B00010B5084C207800F08BF8207900F00EF868
:1025C000FFF7EEFF00206080BDE810400C210248BC
:1025D000FFF70ABB10000020A800002010B5044639
:1025E00006484FF48051012C05D00122FEF72FFC44
:1025F0000348047110BD0022F8E700000008014004
:10260000100000200449488010B1087800F010B88C
:102610000C210248FFF7E8BA10000020A8000020B3
:1026200010B5FFF775FFBDE81040FFF7EBBF0000E6
:1026300010B54FF4C86108280ED0102804D0202807
:1026400005D0402808D105E04FF4486104E04FF47C
:10265000C85101E04FF448511348408841433C229F
:10266000B1FBF2F138B11148B0FBF1F4641E0A2C51
:1026700007D20A240AE0BDE810400C210C48FFF7FD
:10268000B3BAB4F5803F01D34FF6FF740C2108486C
:10269000FFF7AAFA06480168CC62C460BDE81040A2
:1026A0000C21FFF753BA00001000002040420F0039
:1026B000A8000020FEE770470A4601464FF47A73EF
:1026C0000148FFF7FDBC00008001002070470000BA
:1026D00070B54FF48041154C4E000546082813D0C4
:1026E000102D13D0202D1BD0402D4FF000020ED006
:1026F0002046FEF7ACFB002231462046FEF7A7FB42
:1027000008250B48057070BD00220AE00122204612
:10271000FEF79DFB012231462046FEF798FBF0E7CD
:1027200001222046FEF793FB0022F4E7000C014053
:1027300010000020FEF796BB30B593B02821684604
:10274000FDF709FD14210AA8FDF705FD002501206C
:102750000F9510951195010412958DE823000490B2
:102760004FF4E010CDE90810022407946846FEF704
:1027700063FD08B172B6FEE70AA90F2081E83100B7
:102780004FF48060CDE90D0502210AA8FEF778FC20
:1027900008B172B6FEE74FF4004011900F940FA8F5
:1027A000FEF7F8FB002801D072B6FEE713B030BD8B
:1027B000704700000148FFF750B80000A800002053
:1027C0000148FFF74AB80000A80000200148FFF7C1
:1027D00044B80000F0000020F0B50268194B1A4C14
:1027E0001A4D4FF08047984205D0B84203D0A0421E
:1027F00001D0A84203D122F070064A6832439842C1
:1028000005D0B84203D0A04201D0A84203D122F49F
:102810004074CA6822434C6922F08002224302605D
:102820008A68C2620A688262984201D109690163BA
:10283000012141610169C90703D0016921F001014A
:102840000161F0BD002C0140000400400008004080
:1028500010B501F01F030121046A99408C43046202
:10286000016A9A401143016210BD10B5846842EAC2
:10287000032224F47F440A432243826010BD82680D
:1028800022F070020A4342F00701816070470000A5
:1028900030B5036A026A22F001020262426884696A
:1028A00024F073050C682C4323F002058B682B433E
:1028B0000A4DA8420BD123F00805CB6822F44072E0
:1028C0002B434D6923F0040315438A692A43426070
:1028D000846149684163036230BD0000002C0140FF
:1028E00030B5026A036A23F0100303624368846907
:1028F0000D6824F4E64444EA05248D6822F02002A1
:1029000042EA05120B4DA8420ED1CD6822F080029A
:1029100042EA05124D6923F4406343EA85038D6959
:1029200022F0400243EA8503436084614968816381
:10293000026230BD002C014030B5036A026A22F405
:10294000807202624268C46923F4007324F0730544
:102950000C682C438D6843EA05230C4DA8420ED128
:10296000CD6823F4006343EA05234D6922F4405205
:1029700042EA05128D6923F4806342EA051242603F
:10298000C4614968C163036230BD0000002C01408E
:1029900030B5046A026A22F4805202624268C36956
:1029A0000D6823F4E64343EA05238D6824F40054BC
:1029B00044EA0534064DA84204D14D6922F4804210
:1029C00042EA85124260C36149680164046230BD15
:1029D000002C014010B5036A046A24F0010404626B
:1029E000846924F0F00444EA021423F00A020A4342
:1029F0008461026210BD10B5036A046A24F01004F9
:102A00000462846923F0A00324F4704444EA02328F
:102A100043EA01118261016210BD10B5406A0021D4
:102A2000C185C184FFF740F910BD01680C3151E840
:102A3000002F22F4907241E80023002BF5D10168A9
:102A4000143151E8002F22F0010241E80023002B4D
:102A5000F5D1016B012909D101680C3151E8002F32
:102A600022F0100241E80023002BF5D1202180F84C
:102A7000421000210163704708B590F842102229E6
:102A800001D0022008BD82684FF480539A4201D1E0
:102A9000016921B1816A9A421BD04AB10AE00268F9
:102AA000816A5268C2F308020A80816A891C08E0C0
:102AB000026972B10268526802F07F020A70816A8C
:102AC000491C8162C18D491E0904090CC18503D0CE
:102AD0001BE002685268F1E70168CA6822F0200230
:102AE000CA600168CA6822F48072CA6001684A69D3
:102AF00022F001024A61202180F842100021416346
:102B0000026B012A03D0FFF787FA002008BD01639A
:102B100001680C3151E8002F22F0100241E8002337
:102B2000002BF5D101680A68D20602D50A68496807
:102B30000091818DFFF7B7F8E7E7000070B5044614
:102B400000680169E26821F4405111430161216983
:102B5000A0680843616908432168CA6841F20C63B0
:102B60009A430243CA6020684169A26921F4407116
:102B7000114341611E492068884202D1FEF726FBBD
:102B800001E0FEF713FB00EBC00101EB00126068EF
:102B900064218000B2FBF0F3B3FBF1F36FF0180691
:102BA0007343B2FBF0F5B2FBF0F605EB830532237D
:102BB00003EB0515B5FBF1F5B6FBF1F605F0F005F5
:102BC00005EB0615B2FBF0F6B2FBF0F0B0FBF1F04E
:102BD0006FF01802504306EB800003EB0010B0FBCF
:102BE000F1F0216800F00F002844886070BD0000FB
:102BF0000038014081628285C28500214164222122
:102C000080F84210016921B10168CA6842F48072FB
:102C1000CA6001684A6942F001024A610068C168FD
:102C200041F02001C160002070472DE9F84398462B
:102C300017460D460446089E24E0701C22D0FEF77D
:102C40000BF9A0EB0800B0421AD8CEB12068C168D9
:102C5000490717D5802D15D0402D13D00168C943E1
:102C600009070FD401680025406800902046FFF74F
:102C7000DCFE0820606484F840500120BDE8F88341
:102C80000320FBE72068006835EA000004D000203C
:102C9000B842D2D00020F1E70120F9E70148FFF760
:102CA00005B8000080010020FEE70907090E002892
:102CB00004DB00F1E02080F80014704700F00F0002
:102CC00000F1E02080F8141D704702E008C8121FD0
:102CD00008C1002AFAD170477047002001E001C105
:102CE000121F002AFBD1704710B504210348FEF7DC
:102CF0002DFFBDE8104000F019B800003801002099
:102D000000EB4001C1EBC0107F2101EBC000FF21AF
:102D1000B0FBF1F080B24FF47A71884200D90846D6
:102D20000149096888637047380100200249002082
:102D3000096888637047000038010020FEF79AF8A0
:102D4000FFF7FAFCFFF734FAFFF7C6FBFFF778FB53
:102D5000FFF708FAFFF7DEFAFFF740FBFFF7C4FFC3
:102D60000020FDF7F6FA0120FDF7F3FA0220FDF747
:102D7000F0FA09210020FDF711FC09210120FDF7DF
:102D80000DFC09210220FDF709FCFFF711FC2D4E77
:102D900020213046FEF756F8B0B300202A4CA07030
:102DA00040213046FEF74EF878B30020E070274807
:102DB000FEF7B8FC24490122891D2548FFF71EF9BA
:102DC000002565710820FFF7B1FBDFF88880012737
:102DD000607810B100F040F8657001213046FEF7D0
:102DE00031F80028F4D16079A0B101281DD0022863
:102DF000EED1FDF771FB4146FDF7B8F9FDF7FDF99E
:102E0000208265712771E3E700E001E00120C5E75A
:102E10000120CBE70020FDF75FFB4146FDF7A6F957
:102E2000FDF7EBF9A0816771D2E70120FDF754FBB4
:102E30004146FDF79BF9FDF7E0F9E0810220607162
:102E4000C6E700000008014016000020A80000208E
:102E5000800100200000C8422DE9FE4F0026DFF867
:102E6000A0810096674F404698F80820837A4FF07B
:102E7000010AB7F801C03878554640F6B831012A42
:102E80000BD04446022A36D0032A47D0042A4ED01B
:102E9000052A61D0062A76D0A1E04246032B71D3E1
:102EA0009CFA9CF407468C4200D90C46DFF85891F6
:102EB000012F01D017B10AE0D07800E0907830B14E
:102EC000FFF74CFB89F800608DF800600FE0384692
:102ED000FFF784FB2046FFF7A3FBFFF761FB89F8B0
:102EE00000504A4804804A4807708DF800506A46EE
:102EF0005146012071E0052B71D3B7F803209CFAED
:102F00009CF352BA8A4200D90A461946FFF72EFBB3
:102F100029468DF800506A4602205EE093B3FFF721
:102F2000EFFE29468DF800506A46032055E04BB36A
:102F3000384B012806D038B18DF800606A465146FA
:102F400004204AE0012200E0002201211846FDF79A
:102F50007EFF8DF80050F1E7A3B12F4B012806D07A
:102F600038B18DF800606A465146052035E00122EF
:102F700000E0002201211846FDF769FF8DF800509E
:102F8000F1E700E02BE0FDF7C7F98DF804002079A8
:102F900048B3B4F90C10642059B391FBF0F1C9B2F5
:102FA0008DF80510B4F90E1029B391FBF0F1C9B2F8
:102FB0008DF80610B4F91010F9B191FBF0F0C0B221
:102FC0008DF808608DF809608DF807008DF80A60AB
:102FD0008DF80B6001AA0821062000F01FF888F880
:102FE0000A60BDE8FE8FFF208DF805008DF8060011
:102FF000E6E7FF21D4E7FF21DAE7FF20E0E7000062
:1030000016000020380000200000002004000020EE
:1030100001000020000C01400008014030B591B0D3
:103020000C464FF0FE018DF800108DF8011004F1F0
:1030300003018DF802100E4913006D46C9798DF811
:1030400003108DF804004FF0050107D034B122467B
:103050001946681DFDF766F8641DE1B2FA20685450
:10306000491CC9B26846FFF727FB11B030BD00000C
:1030700016000020010202030405060708090A0BD6
:103080000C0D0E0F101000000000000000000102E7
:103090000304060708090000000001020304000001
:1030A000C03000080000002038000000CA2C0008D2
:1030B000F83000083800002090050000DA2C0008E5
:1030C0000000000000000000000000000000000000
:1030D00008000000000000000000000000000000E8
:1030E00000000000000000000100000010000000CF
:0830F0000000000000127A004C
:04000005080000ED02
:00000001FF
