:020000040800F2
:10000000B00500200101000823220008AB1E0008F3
:1000100021220008310300088D270008000000009D
:100020000000000000000000000000003D22000869
:100030003908000800000000252200083F220008BF
:100040001B0100081B0100081B0100081B01000820
:100050001B0100081B0100081B0100081B01000810
:100060001B0100081B0100081B0100081B01000800
:100070001B0100081B0100081B0100081B010008F0
:100080001B0100081B0100081B0100081B010008E0
:100090001B0100081B0100081B0100081B010008D0
:1000A0001B0100081B0100081B0100081B010008C0
:1000B0001B0100081B0100081B0100081B010008B0
:1000C0001B0100081B0100081B0100081B010008A0
:1000D0001B0100081B010008812700081B01000804
:1000E0001B0100081B0100081B010008DFF80CD0F1
:1000F00000F0D4F80048004721280008B00500208F
:100100000648804706480047FEE7FEE7FEE7FEE7B1
:10011000FEE7FEE7FEE7FEE7FEE7FEE7BB2200089C
:10012000ED00000840EA01039B0703D009E008C97D
:10013000121F08C0042AFAD203E011F8013B00F8AC
:10014000013B521EF9D27047D2B201E000F8012BF8
:10015000491EFBD270470022F6E710B513460A4647
:1001600004461946FFF7F0FF204610BD80EA010261
:1001700010B502F00043400022D04A001FD0010E0B
:1001800001EB1261C0F35600C2F3560240F40000C6
:1001900042F40002A0FB022000047F39140400D0C6
:1001A000401C50EA124001D44000491EC2B20C0665
:1001B00004EBD010401C4008802A02D003E000204D
:1001C00010BD20F00100002900DA0020184310BD06
:1001D000420005D0C0F3C7525242914201DC0020D8
:1001E000704700EBC1507047C10F80EAE0700844CF
:1001F000CA079623002100F022B800F0004220F048
:100200000040C10DC0F3160040F400007F2901DA60
:1002100000207047962903DCC1F19601C84001E037
:1002200096398840002AF4D0404270470029A8BF80
:100230007047401C490008BF20F00100704710B40F
:10024000B0FA80FC00FA0CF050EA010404BF10BCC4
:10025000704749B1CCF1200421FA04F411FA0CF1F1
:1002600018BF012121430843A3EB0C01CB1D4FEA2A
:1002700000614FEA102042BF002010BC704700EB25
:10028000C35010440029A4BF10BC7047401C490053
:1002900008BF20F0010010BC70470000064C074D5D
:1002A00006E0E06840F0010394E807009847103446
:1002B000AC42F6D3FFF71EFFA42A0008C42A0008A8
:1002C00070B5044600688168C943C90717D18168C1
:1002D00021F00101816000F067FD05460AE000BFE2
:1002E00000F062FD401B022804D920688068C043EA
:1002F000C00706D020688068C043C007F0D0002047
:1003000070BDA06A40F01000A062E06A40F00100F9
:10031000E062012070BD000010B51021034800F01C
:1003200039FD012800D0002010BD00000008014068
:10033000FEE7000070B5084C0546002021684862C1
:10034000204601F07FF92068416AA942FCD3BDE84C
:100350007040014801F09EB92001002000F0F2B881
:100360002DE9F04700255D4C07462E464FF4005816
:100370004FF480494FF4004A6D0827B1012F38D05F
:10038000022F4FD141E06168204621F47001616085
:10039000616841F4401161600022414600F0FFFCB9
:1003A0000220FFF7C7FF01224146204600F0F7FC7C
:1003B000606820F470006060606840F40000606075
:1003C0000820FFF7B7FF4146204600F0E3FC08B1E4
:1003D00045F080053220FFF7ADFF6168204621F42B
:1003E00070016160616841F4401161600122414621
:1003F0005EE06168204621F070616160616841F0F3
:1004000040716160002249460AE06168204621F09F
:1004100070416160616841F0405161600022514665
:1004200000F0BDFC0220FFF785FF012F02D0022F54
:100430001AD10CE001224946204600F0B0FC606869
:1004400020F070606060606840F000600BE00122A6
:100450005146204600F0A3FC606820F070406060C8
:10046000606840F0004060600820FFF763FF012FE4
:1004700002D0022F09D101E0494600E05146204652
:1004800000F088FC08B145F080053220FFF752FFEC
:10049000012F02D0022F0DD114E06168204621F017
:1004A00070616160616841F040716160012249469C
:1004B00000F075FC761CF6B2082EFFF45DAF2846FE
:1004C000BDE8F0876168204621F070416160616895
:1004D00041F04051616001225146E9E700100140BE
:1004E00070B5054600F08EF838B3CC21284600F0F0
:1004F0001FF94421284600F01BF9642000F048FB56
:10050000284600F07FF8CC21284600F011F9BE21E2
:10051000284600F00DF92846FFF722FF044628463A
:10052000FFF71EFF44EA002000B2FFF75DFEBDE8C2
:1005300070406FF00301FFF74BBE014870BD000033
:1005400000007AC4164988B101281BD0022825D1A1
:100550000846496821F070414160416841F04051CE
:10056000416001225FEAC23100F019BC08464968C7
:1005700021F470014160416841F440114160012261
:100580005103F1E70846496821F070614160416814
:1005900041F04071416001229103E5E7704700009E
:1005A0000010014070B50546A1F10900042805D2EC
:1005B00009291FD00A291FD00B291FD07F242846C4
:1005C00000F020F800281BD0CC21284600F0B0F81D
:1005D0004E21284600F0ACF85521284600F0A8F836
:1005E0000021284600F0A4F821462846BDE87040C6
:1005F00000F09EB81F24E2E73F24E0E75F24DEE737
:1006000070BD00002DE9F047484C06004FF0000592
:100610004FF4167808D04FF480474FF40049012E6C
:1006200028D0022E3FD131E06168204621F47001CC
:100630006160616841F4401161604FF4005700222D
:10064000394600F0ACFB4046FFF774FE0122394604
:10065000204600F0A4FB1E20FFF76CFE606820F42B
:1006600070006060606840F4000060600A20FFF77E
:1006700061FE48E06168204621F070616160616858
:1006800041F040716160002239460AE0616820460D
:1006900021F070416160616841F040516160002269
:1006A000494600F07CFB4046FFF744FE012E02D095
:1006B000022E08D102E00122394601E0012249461A
:1006C000204600F06CFB1E20FFF734FE012E02D006
:1006D000022E10D107E0606820F0706060606068F2
:1006E00040F0006006E0606820F070406060606884
:1006F00040F0004060600A20FFF71CFE012E02D08F
:10070000022E08D101E0394600E04946204600F0BB
:1007100041FB00B901254FF4F070FFF70BFE3046A6
:10072000FFF710FF2846BDE8F087000000100140E9
:100730002DE9F0473F4C0D46070004D0012F0CD0A7
:10074000022F1AD111E0606820F4700060606068C8
:1007500040F44010606000261AE0606820F070608D
:100760006060606840F0407006E0606820F07040B3
:100770006060606840F040506060002647B14FF410
:1007800080484FF40049012F10D0022F16D110E0FD
:100790004FF4005800224146204600F000FB0220A2
:1007A000FFF7C8FDE80711D0012210E00022414602
:1007B00001E000224946204600F0F1FA0220FFF74E
:1007C000B9FD012F0BD0022F19D10FE000224146B5
:1007D000204600F0E4FA3C20FFF7ACFD17E0E80704
:1007E00001D0012200E00022414605E0E80701D0E7
:1007F000012200E000224946204600F0D0FA3C20C9
:10080000FFF798FD012F02D0022F08D102E001224C
:10081000414601E001224946204600F0C0FA6D0839
:100820000220FFF787FD761CF6B2082EA6D3BDE89E
:10083000F087000000100140704772B6FEE700002C
:10084000F8B50024009490F824202546012A12D0FF
:10085000012280F824204A681F23072A0DD2066847
:10086000776B521E02EB820293409F430B689340CA
:100870001F43776319E00220F8BD06680D2A0AD2EB
:10088000376BD21F02EB820293409F430B68934069
:100890001F43376309E0F76A0D3A02EB8202934087
:1008A0009F430B6893401F43F7620A68072306685B
:1008B0000A2A0AD3F7680A3A02EB420293409F439E
:1008C0008B6893401F43F76008E0376902EB4202F0
:1008D00093409F438B6893401F4337610A68102AF7
:1008E00001D0112A20D1124B02689A4217D1936885
:1008F0001B0219D4936843F400039360096810291C
:1009000012D10C490C4A0968B1FBF2F101EB8101EB
:10091000490000E0491E00910029FBD104E0816AF2
:1009200041F020018162012480F824502046F8BD66
:10093000002401401C00002040420F002DE9F0413E
:100940004FF0000704003D467ED0A06A002628B97B
:10095000E66284F82460204600F07EF82046FFF727
:10096000AFFCA16AC90600D420B1A06A40F0100013
:10097000A06269E0A16A21F4885141F00201A162FC
:100980006268E169237B0A4347EA43010A43A1689D
:100990004FF48077B94209D0012907D05FF00001F8
:1009A00094F814C0BCF1010F02D00AE03946F7E711
:1009B000F3B1A36A43F02003A362E36A43F00103A7
:1009C000E3622368D3F804C02CF4694C4CEA010CB0
:1009D000C3F804C021688B68DFF870C003EA0C0319
:1009E00013438B60A168B9420BD0012909D00CE0F8
:1009F000DFF85CC0A3690CEB43330B4343F40061A5
:100A0000DFE7218A0D05A5F580152168CB6A23F45F
:100A100070032B43CB62216889680E4B19409142C9
:100A200008D1E662A16A21F0020141F00101A16250
:100A3000BDE8F081A06A20F0020040F01000A06242
:100A4000E06A40F00100E0620120F1E7FDF7E1FF1C
:100A500000E0FFFFFE0E1FFF00B585B000210091F2
:100A600001910291039100680E49884218D10E4805
:100A7000816941F400718161816901F4007104911F
:100A8000816941F0040181618069694600F00400D8
:100A900004900220009003200190044800F08AF89E
:100AA00005B000BD002401400010024000080140D4
:100AB00010B590F821100022022905D0042181638D
:100AC00080F82020012010BD01680B6823F00E0380
:100AD0000B6001680B6823F001030B6090F8403055
:100AE000C46B012101FA03F3636080F8211080F8E0
:100AF0002020104610BD000010B590F821100024F1
:100B0000022903D00421816301243DE001680A68C1
:100B100022F00E020A6001680A6822F001020A60EF
:100B20001A4A0168914201D1012121E0174A143289
:100B3000914201D110211BE0144A2832914201D187
:100B4000891515E0114A3C32914201D189140FE018
:100B50000E4A5032914202D14FF4803108E00B4AE4
:100B60006432914202D14FF4801101E04FF0807164
:100B7000064A083A5160012180F82110002180F8CE
:100B80002010416B01B18847204610BD080002408B
:100B900070B5044600F008F90546601C02D0044810
:100BA0000078044400F000F9401BA042FAD370BD65
:100BB000100000202DE9F84FDFF8B8910024A9F1CA
:100BC000040B23460F2709F1040AABF1040EC9E018
:100BD0000125A5402A40AA427DD1674ED1F804C024
:100BE000ACEB0608B44532D014DCBCF1030F3AD0AC
:100BF00009DCBCF1000F2AD0BCF1010F1CD0BCF104
:100C0000020F31D11DE0BCF1110F17D0BCF1120F52
:100C10002AD119E0B8F5881F19D006DCB8F5803F55
:100C200015D0B8F5801F1FD111E0B8F5001F0ED008
:100C3000B8F5041F18D10AE0CB6815E0CB681B1D7E
:100C400012E0CB6808330FE0CB680C330CE08B6804
:100C50002BB1012B4FF0080303D0456104E00423BE
:100C600002E0056100E00023FF2A01D8064601E00A
:100C700000F104064FEA840501D9A5F12005D6F854
:100C8000008007FA05FC28EA0C0803FA05F548EA93
:100C90000508C6F800804D68ED0062D5374DAE6995
:100CA00046F00106AE61AD6924F0030605F00105CA
:100CB0000095334D06EB050CDCF80850A607360FFF
:100CC00007FA06F825EA0805DFF8B880404503D1A1
:100CD0004FF0000817E044E0DFF8AC80404502D157
:100CE0004FF001080FE0DFF8A480404502D14FF03B
:100CF000020808E0DFF89880404502D14FF0030871
:100D000001E04FF0040808FA06F848EA0508CCF8B4
:100D100008804D68D9F80060ED024D4601D51643B4
:100D200000E096432E604D68DAF80060AD0255464B
:100D300001D5164300E096432E604D68DBF8006055
:100D4000AD035D4601D5164300E096432E604D6825
:100D5000DEF80060ED03754601D5164300E09643CA
:100D60002E60641C0D682A46E5407FF431AFBDE873
:100D7000F88F00000804014000001110001002402C
:100D80000000014000080140000C0140001001403B
:100D9000001401408068084000D0012070470AB16B
:100DA000016170470904FBE7014880687047000053
:100DB0001000002002488168027811448160704769
:100DC00010000020074810B5016841F010010160D3
:100DD000032000F075F80F2000F006F800F024F86A
:100DE000002010BD0020024070B50D4D04464FF4A8
:100DF0007A712878B1FBF0F00A490968B1FBF0F08C
:100E000000F052FB48B9102C07D200222146501E98
:100E100000F036F800206C6070BD012070BD00004D
:100E2000100000201C0000200C4808B5816941F02A
:100E300001018161816901F001010091C16941F005
:100E40008051C161C06900F0805000900448416841
:100E500021F0E06141F00071416008BD00100240E6
:100E600000000140002809DB00F01F020121914031
:100E70004009800000F1E020C0F800117047000038
:100E8000F0B40E4B1B680C46C3F30223C3F10705F5
:100E9000042D00D90425191D072901D2002300E0E3
:100EA000DB1E012606FA05F1491E214099409E40AD
:100EB000761E16403143F0BC01F069BC0CED00E039
:100EC000064900F0070208684FF6FF03184040EAA1
:100ED0000220034A10430860704700000CED00E058
:100EE0000000FA052DE9F84305460078354CC007A7
:100EF00054D0E0690026C00008D4E06940F080507A
:100F0000E061E069012600F0805000902E48016801
:100F1000C90512D40168804641F480710160FFF771
:100F200043FF074605E000BFFFF73EFFC01B6428F4
:100F300023D8D8F80000C005F6D5206A10F4407018
:100F400021D0A98801F4407181421CD0206A1F4938
:100F5000012220F440700A6000220A602062C0076B
:100F600011D0FFF721FF074641F2883808E000BFA3
:100F7000FFF71AFFC11B414502D90320BDE8F883E2
:100F8000206A8007F4D5206A696820F4407008431D
:100F900020621EB1E06920F08050E061287880076F
:100FA00005D56068A96820F440400843606028784F
:100FB000C00605D56068E96820F4800008436060D9
:100FC0000020DBE700100240007000404004424275
:100FD0002DE9F0470F46050061D0434E306800F020
:100FE0000700B84209D2306820F00700384330606B
:100FF000306800F00700B84251D128683B4C8107A7
:1010000012D5400703D5606840F4E060606028783E
:10101000000703D5606840F4605060606068A968AC
:1010200020F0F000084360602878C00728D0686886
:10103000012810D02168022810D0890700292EDA53
:10104000616821F0030101436160FFF7ADFE804656
:1010500041F288390DE021688903EFE78901EDE766
:10106000FFF7A2FEA0EB0801494502D90320BDE825
:10107000F0876068696800F00C00B0EB810FEFD179
:10108000306800F00700B8420BD9306820F0070044
:1010900038433060306800F00700B84201D00120CA
:1010A000E5E72878400705D56068E96820F4E06046
:1010B000084360602878000706D56068296920F435
:1010C000605040EAC100606000F038F86168084A8A
:1010D000C1F30311515CC840064908600648006826
:1010E000FFF782FE0020C2E700200240001002400D
:1010F0008A2A00081C00002014000020044805492A
:1011000000684968044AC1F30221515CC840704735
:101110001C000020001002409A2A000804480549DB
:1011200000684968044AC1F3C221515CC840704755
:101130001C000020001002409A2A00080E4A516844
:101140000E4801F00C03042B11D0082B0FD10C48D2
:10115000C1F38343C903C05C0AD55168084AC1F38F
:101160004041921E515C054A5043B0FBF1F070477C
:1011700004494843704700000010024000127A0002
:101180007A2A000800093D002DE9F84F040070D0CC
:101190002078C04DC00749D06868C0F3810001289D
:1011A00007D06868C0F38100022809D16868C003CD
:1011B00006D52868800339D560680028E7D035E077
:1011C0006068B0F5803F0BD010B1B0F5A02F11D002
:1011D000286820F480302860286820F4802002E00D
:1011E000286840F480302860606890B1FFF7DCFD2B
:1011F00006460AE0286840F480202860F0E700BF37
:10120000FFF7D2FD801B642873D828688003F7D5C8
:101210000CE0FFF7C9FD064605E000BFFFF7C4FD7F
:10122000801B6428F0D828688003F7D420789A4E71
:1012300080074FF001094FF0000839D5686810F0B9
:101240000C0F07D06868C0F38100022809D16868D4
:10125000C00306D42868800714D52069012808D166
:1012600010E02069B0B1C6F80090FFF79DFD074679
:1012700005E00AE1FFF798FDC01B0228C4D82868E2
:101280008007F7D52868616920F0F80040EAC100BE
:1012900028600DE0C6F80080FFF786FD074604E0F1
:1012A000FFF782FDC01B022823D828688007F7D4E7
:1012B000207800072CD57948A169D9B1C0F80090F1
:1012C000FFF772FD074604E0FFF76EFDC01B022822
:1012D0000FD8686A8007F7D571484FF4FA51006853
:1012E000B0FBF1F0009000BF0098411E0091FAD2CF
:1012F0000EE080E0C0F80080FFF756FD074604E0EE
:10130000FFF752FDC01B022875D8686A8007F7D422
:101310002078400760D5E8690027C00008D4E86954
:1013200040F08050E861E869012700F080500090AB
:101330005C480168C90513D40168834641F4807193
:101340000160FFF731FD824606E000BFFFF72CFD8C
:10135000A0EB0A0064284ED8DBF80000C005F5D5E4
:10136000E06801280AD008B1052813D0286A20F0C7
:1013700001002862286A20F0040002E0286A40F098
:1013800001002862E06841F2883B98B1FFF70CFD4C
:1013900082460BE0286A40F004002862EEE700BFB6
:1013A000FFF702FDA0EB0A0159455AD8286A8007C9
:1013B000F6D50CE0FFF7F8FC824605E0FFF7F4FCF9
:1013C000A0EB0A0159454CD8286A8007F6D41FB112
:1013D000E86920F08050E861E06988B36968C1F38A
:1013E0008101022944D00228C6F8608004D0FFF7AA
:1013F000DBFC044638E034E0FFF7D6FC074604E0A7
:10140000FFF7D2FCC01B02282BD828688001F7D434
:10141000206AB0F5803F05D16868A16820F40030EB
:1014200008436860D4E908010843696821F474112D
:1014300008436860C6F86090FFF7B6FC044606E013
:1014400025E000BFFFF7B0FC001B022809D8286880
:101450008001F7D51BE000BFFFF7A6FC001B0228A8
:1014600002D90320BDE8F88F28688001F4D40EE08B
:101470000128F7D06868226A00F48031914204D1D3
:10148000616A00F47010884201D00120EAE7002070
:10149000E8E700000010024000004242800442429F
:1014A0001C0000200070004010B5401EB0F1807F8D
:1014B00001D3012010BD4FF0E02460610F216017BF
:1014C00001F065F90020A06107202061002010BD17
:1014D00010B590F83C20012A22D0012280F83C204F
:1014E000CA688C6822F4407222434C6822F48062FD
:1014F00022430C6822F4006222430C6922F48052D9
:1015000022434C6922F400522243C969002322F489
:1015100080420A4301684A6480F83C30002010BDD4
:10152000022010BD70B590F83C20012A26D001247D
:1015300080F83C40022280F83D2003685A689D688C
:1015400022F070060A6832435A600D4B02689A42D4
:1015500008D0B2F1804F05D00A4B9A4202D00A4B14
:101560009A4204D1496825F080031943916080F8BC
:101570003D40002180F83C10084670BD022070BD3F
:10158000002C0140000400400008004010B5040099
:1015900003D094F83D0010B107E0012010BD0020F9
:1015A00084F83C00204600F01FF8022084F83D003B
:1015B000211D206800F082FE012084F8460084F896
:1015C0003E0084F83F0084F8400084F8410084F82D
:1015D000420084F8430084F8440084F8450084F80D
:1015E0003D00002010BD000008B5124A01681248F5
:1015F000914207D1816941F400618161806900F401
:10160000006009E00D4A914208D1C16941F0020130
:10161000C161C06900F00200009008BD084A914213
:10162000FBD1C16941F00401C161C06900F004004F
:10163000F2E70000002C01400010024000040040CE
:101640000008004090F83D10012901D001207047AA
:10165000022180F83D1000680B49884208D0B0F1A3
:10166000804F05D00949884202D00949884204D1F7
:10167000816801F00701062903D0016841F00101EA
:101680000160002070470000002C01400004004071
:101690000008004001680A6A41F211131A4207D19A
:1016A0000A6A9B101A4203D10A6822F001020A60FA
:1016B000012180F83D100020704770B5044690F875
:1016C0003C000025012817D0012684F83C60022048
:1016D00084F83D002068826822F0770222F47F427D
:1016E00082600868502838D00DDC20284FD005DCF7
:1016F00090B3102811D14AE0022070BD302846D0A6
:1017000040280AD13BE060282FD070280DD0B0F5DA
:10171000805F03D0B0F5005F12D0012584F83D60F2
:10172000002084F83C00284670BDCB68D1E9012137
:10173000206800F00CFE2068816841F0770109E024
:10174000CB68D1E90121206800F001FE20688168A2
:1017500041F480418160E1E719E0CA684968206886
:1017600000F0AAFE5021206806E0CA684968206897
:1017700000F0B3FE6021206800F0F3FDCEE7CA68F8
:101780004968206800F098FE40212068F4E722684C
:1017900001461046F0E7000000B585B00021009139
:1017A0000191029103911B4B02681B4802219A424E
:1017B00011D1826942F0040282618069039100F0D4
:1017C000040004908802CDE9000169461348FFF740
:1017D000F1F905B000BD124B9A42FAD1826942F08C
:1017E00008028261806900F0080004902020CDE9A1
:1017F00000010320039069460A48FFF7DBF90A4815
:10180000416821F4406141F0E06141F400614160D0
:10181000DFE70000002C01400010024000080140FA
:1018200000040040000C01400000014070B5044677
:1018300090F83C0000260D4601280FD0012084F8C6
:101840003C006AB1042A1DD0082A2FD00C2A3FD0B0
:101850000126002084F83C00304670BD022070BD97
:10186000206800F087FD2068816941F008018161EE
:101870002068816921F004018161206881692A69F9
:10188000114311E0206800F09DFD2068816941F45A
:10189000006181612068816921F480618161206833
:1018A00081692A6941EA02218161D2E7206800F05A
:1018B000B5FD2068C16941F00801C1612068C169B6
:1018C00021F00401C1612068C1692A69114311E056
:1018D000206800F0CFFD2068C16941F40061C1615A
:1018E0002068C16921F48061C1612068C1692A69E9
:1018F00041EA0221C161ACE710B5040003D094F8BD
:101900003D0010B107E0012010BD002084F83C002C
:10191000204600F01EF8022084F83D00211D2068BA
:1019200000F0CCFC012084F8460084F83E0084F8E6
:101930003F0084F8400084F8410084F8420084F8B5
:10194000430084F8440084F8450084F83D000020FA
:1019500010BD704710B50446022249B104290ED0CB
:10196000082913D094F84100012816D0012010BD99
:1019700094F83E000128F9D184F83E200FE094F855
:101980003F000128F2D184F83F2008E094F840009D
:101990000128EBD184F8402001E084F841200122A5
:1019A000206800F0C7FC0F492068884203D1426CD0
:1019B00042F4004242642068884208D0B0F1804F6F
:1019C00005D00949884202D00849884204D181687B
:1019D00001F00701062903D0016841F0010101600F
:1019E000002010BD002C0140000400400008004011
:1019F00070477047F8B5016804460868CA684B69C3
:101A000010F00F0F4FF0000559D003F0010602F45B
:101A10009077374365D0C10705D0D10503D5616CF8
:101A200041F001016164410705D5D90703D0616C1C
:101A300041F002016164810705D5D90703D0616CCB
:101A400041F004016164010707D502F02001314330
:101A500003D0616C41F008016164616C00293AD0E7
:101A6000800604D5900602D5204600F077FD206858
:101A70004069616CC0F38010090700D460B3204650
:101A800000F045FD20684069400621D520681430EB
:101A900050E8001F21F0400140E80012002AF5D173
:101AA000E06BA8B16D494163E06BFFF725F80028B2
:101AB00011D0E06B416B01B0BDE8F04008478306F0
:101AC0000FD593060DD52046BDE8F84000F046BD81
:101AD0002046FFF78EFFF8BD2046FFF78AFF6564BA
:101AE000F8BD266B2023012E7CD1C6067AD5D606FA
:101AF00078D508684868009048694FF002064006AB
:101B000040D5E16B086840680004000CE8D0A28D65
:101B10008242E5D9E085886920282DD020680C30E4
:101B200050E8001F21F4807140E80012002AF5D12E
:101B30002068143050E8001F21F0010140E8001235
:101B4000002AF5D12068143050E8001F21F0400130
:101B500040E80012002AF5D184F84230256320685D
:101B60000C3050E8001F21F0100140E80012002A5C
:101B7000F5D1E06BFEF79CFF6663A08DE18D401A06
:101B800081B22AE0A08DE18D401A81B2E08D00285B
:101B9000A6D00029A4D022680C3252E8000F20F40D
:101BA000907042E80007002FF5D12068143050E80B
:101BB000002F22F0010240E80027002FF5D184F821
:101BC0004230256320680C3050E8002F22F01002CC
:101BD00040E80023002BF5D166632046FFF708FF9D
:101BE000F8BDFFE705062BD5150629D594F8410069
:101BF0002128F5D1A068B0F5805F01D12069B0B18E
:101C0000206A411C2162216800784860E08C401EF7
:101C10000004000CE084E3D12068C16821F0800159
:101C2000C1602068C16841F04001C160D8E7206A06
:101C30000088C0F308004860206A801C2062E5E745
:101C40004006CDD55006CBD5CA68204622F04002CA
:101C5000CA6084F8413000F027F9C1E7FF2400088A
:101C600070B5040004D094F84100002510B106E0DE
:101C7000012070BD84F84050204600F023F8242055
:101C800084F841002068C16821F40051C1602046F9
:101C900000F0C6FC2068016921F4904101612068D0
:101CA000416921F02A0141612068C16841F4005175
:101CB000C1606564202084F8410084F842006563B7
:101CC000002070BD30B585B00024009401940294CA
:101CD00003940068184988422BD11848C16941F41F
:101CE0000031C161C16901F400310491816941F0A1
:101CF000040181618069124D00F004000490042009
:101D00000090022001900320039069462846FEF7C8
:101D100051FF0820CDE90004694628460294FEF7E9
:101D200049FF002211462620FFF7AAF82620FFF7D8
:101D300099F805B030BD000000440040001002409A
:101D40000008014090F84230202B01D0022070475B
:101D500021B11AB10023036300F0BEBC012070471B
:101D6000F0B400682449884244D1244806780246E9
:101D700001231179D47906250022072E2FD2DFE81E
:101D800006F004080C1417203500FE2927D1037033
:101D900025E0FE2907D102210EE0C171027203295C
:101DA00001D3032108E0027019E04171042103E02E
:101DB0008171032C02D90521017010E00570437078
:101DC0000DE0037A402B04D20D4AD1545B1C037200
:101DD00000E00270D9B2E41EA14200DB0570F0BC45
:101DE00006490122091D0748FFF7ACBFFA29DAD1DD
:101DF0004370D8E7F0BC704700440040000000206A
:101E000020000020680100202DE9F843044690F8E6
:101E10004100984616460D46202802D00220BDE813
:101E2000F88385B17EB100206064212084F84100F0
:101E3000FEF7BAFFA6848146E684A0682027B0F5A5
:101E4000805F02D003E00120E9E7206910B12E464F
:101E500000250EE000260CE08021204600F057FC13
:101E6000A8B9C6B116F8010B21684860E08C401E85
:101E7000E084E08C4B464FF00002CDF80080002853
:101E8000EAD14FF04001204600F041FC40B184F817
:101E900041700320C3E735F8020BC0F30800E3E705
:101EA00084F841700020BAE77047FEE73EB5002491
:101EB00010480094019402940D49846001600473F9
:101EC0000475012505614FF460214460C161FEF78E
:101ED00035FD08B1FEF7B1FC0095CDE90154694626
:101EE0000448FEF7ADFC002801D0FEF7A6FC3EBD7D
:101EF00000240140600000202DE9F04786B0002456
:101F000044480094019402940394816941F01001C3
:101F10008161816901F010010491816941F0200122
:101F20008161816901F020010491816941F004011E
:101F30008161816901F004010491816941F0080126
:101F400081618069DFF8D08000F0080004900022F1
:101F50004FF460414046FEF722FFDFF8C0A00022A8
:101F600041F201115046FEF71AFFDFF8B49000224B
:101F70004DF201014846FEF712FF4FF420400125C3
:101F80000326CDE90005CDE9024669464046FEF745
:101F900011FEA8030227CDE90005CDE902476946F5
:101FA0004046FEF707FE03970095CDE901546946C8
:101FB0005046FEF7FFFD70208DE83100694650461F
:101FC000FEF7F8FD41F20100CDE90005CDE9024739
:101FD00069464846FEF7EEFD6803CDE90004694610
:101FE00048460294FEF7E6FDB003CDE90005CDE9D1
:101FF000024669464846FEF7DDFD4FF48850CDE9BC
:102000000005CDE9024669465046FEF7D3FD06B00D
:10201000BDE8F087001002400010014000080140B8
:10202000000C014010B596B000240F941094119448
:10203000129413941C2108A81494FEF78CF8202104
:102040006846FEF788F827482549C0E900144FF68E
:10205000FF71C0E90241046144618461FFF796FAAF
:1020600008B1FEF7EAFB4FF480500F900FA91D480E
:10207000FFF723FB08B1FEF7E0FB1A48FFF73CFC33
:1020800008B1FEF7DAFB139413A916481494FFF76E
:1020900049FA08B1FEF7D1FB6020CDE908040A94A3
:1020A0000C940D940C2208A90E480E94FFF7BEFB69
:1020B00008B1FEF7C2FB00944FF40050CDE9044094
:1020C000029401940394694606480794FFF700FAC6
:1020D00008B1FEF7B2FB0348FFF75EFB16B010BD78
:1020E000002C01409000002010B58EB00024079411
:1020F000089409940A940B941C2168460C94FEF7EA
:102100002AF81E481C4901604721C0E9011440F229
:10211000E731C0E903148461FFF738FA08B1FEF72C
:102120008CFB4FF48050079007A91448FFF7C5FABD
:1021300008B1FEF782FB1148FFF7DEFB08B1FEF79E
:102140007CFB0B940BA90D480C94FFF7EBF908B13D
:10215000FEF773FB6020CDE9000402940422694677
:1021600006480494FFF762FB08B1FEF766FB0348DC
:10217000FFF712FB0EB010BD00040040D800002095
:1021800010B586B00024174800940194029403947B
:1021900004941349059401604721C0E901144FF6E6
:1021A000FF71C0E903148461FFF7F0F908B1FEF78D
:1021B00044FB4FF48050009069460A48FFF77DFACF
:1021C00008B1FEF73AFB049404A906480594FFF70A
:1021D000A9F9002801D0FEF730FB06B010BD0000C1
:1021E00000080040200100200C4810B50A49016099
:1021F0004FF4E1314160002181600C22C160C0E9EF
:1022000004128161C161FFF72BFD002803D0BDE8F6
:102210001040FEF712BB10BD0044004068010020D2
:10222000FEE7FEE7704700000A4601464FF47A7366
:102230000148FFF7E9BD0000680100207047FEF784
:10224000B9BD30B593B028216846FDF784FF14214D
:102250000AA8FDF780FF002501200F951095119524
:10226000010412958DE8230004904FF4E010CDE9AD
:102270000810022407946846FEF786FF08B172B67C
:10228000FEE70AA90F2081E831004FF48060CDE914
:102290000D0502210AA8FEF79BFE08B172B6FEE703
:1022A0004FF4004011900F940FA8FEF71BFE00287A
:1022B00001D072B6FEE713B030BD7047F0B50268CA
:1022C000194B1A4C1A4D4FF08047984205D0B8422E
:1022D00003D0A04201D0A84203D122F070064A6880
:1022E0003243984205D0B84203D0A04201D0A84260
:1022F00003D122F44074CA6822434C6922F0800260
:10230000224302608A68C2620A688262984201D1EE
:1023100009690163012141610169C90703D00169AC
:1023200021F001010161F0BD002C014000040040DA
:102330000008004010B501F01F030121046A994014
:102340008C430462016A9A401143016210BD10B5CA
:10235000846842EA032224F47F440A4322438260D1
:1023600010BD826822F070020A4342F007018160CA
:102370007047000030B5036A026A22F0010202626F
:102380004268846924F073050C682C4323F002052D
:102390008B682B430A4DA8420BD123F00805CB686C
:1023A00022F440722B434D6923F0040315438A69DC
:1023B0002A434260846149684163036230BD000082
:1023C000002C014030B5026A036A23F01003036257
:1023D000436884690D6824F4E64444EA05248D6862
:1023E00022F0200242EA05120B4DA8420ED1CD6820
:1023F00022F0800242EA05124D6923F4406343EA69
:1024000085038D6922F0400243EA850343608461BD
:1024100049688163026230BD002C014030B5036A17
:10242000026A22F4807202624268C46923F4007373
:1024300024F073050C682C438D6843EA05230C4D8A
:10244000A8420ED1CD6823F4006343EA05234D6909
:1024500022F4405242EA05128D6923F4806342EA75
:1024600005124260C4614968C163036230BD000067
:10247000002C014030B5046A026A22F480520262E4
:102480004268C3690D6823F4E64343EA05238D6877
:1024900024F4005444EA0534064DA84204D14D69A1
:1024A00022F4804242EA85124260C36149680164B5
:1024B000046230BD002C014010B5036A046A24F0A8
:1024C00001040462846924F0F00444EA021423F055
:1024D0000A020A438461026210BD10B5036A046AED
:1024E00024F010040462846923F0A00324F47044EF
:1024F00044EA023243EA01118261016210BD10B563
:10250000406A0021C185C184FFF773FA10BD0168DC
:102510000C3151E8002F22F4907241E80023002B87
:10252000F5D10168143151E8002F22F0010241E891
:102530000023002BF5D1016B012909D101680C3171
:1025400051E8002F22F0100241E80023002BF5D1C2
:10255000202180F8421000210163704708B590F8EF
:102560004210222901D0022008BD82684FF4805316
:102570009A4201D1016921B1816A9A421BD04AB1C4
:102580000AE00268816A5268C2F308020A80816A1E
:10259000891C08E0026972B10268526802F07F0289
:1025A0000A70816A491C8162C18D491E0904090CA7
:1025B000C18503D01BE002685268F1E70168CA6870
:1025C00022F02002CA600168CA6822F48072CA60E0
:1025D00001684A6922F001024A61202180F8421014
:1025E00000214163026B012A03D0FFF7B9FB0020F1
:1025F00008BD016301680C3151E8002F22F0100280
:1026000041E80023002BF5D101680A68D20602D503
:102610000A6849680091818DFFF7EAF9E7E7000051
:1026200070B5044600680169E26821F44051114325
:1026300001612169A0680843616908432168CA688B
:1026400041F20C639A430243CA6020684169A2695F
:1026500021F44071114341611E492068884202D132
:10266000FEF75CFD01E0FEF749FD00EBC00101EB68
:102670000012606864218000B2FBF0F3B3FBF1F359
:102680006FF018067343B2FBF0F5B2FBF0F605EB02
:102690008305322303EB0515B5FBF1F5B6FBF1F627
:1026A00005F0F00505EB0615B2FBF0F6B2FBF0F015
:1026B000B0FBF1F06FF01802504306EB800003EB23
:1026C0000010B0FBF1F0216800F00F002844886092
:1026D00070BD00000038014081628285C285002102
:1026E0004164222180F84210016921B10168CA6861
:1026F00042F48072CA6001684A6942F001024A618C
:102700000068C16841F02001C160002070472DE9D8
:10271000F843984617460D460446089E24E0701C70
:1027200022D0FEF741FBA0EB0800B0421AD8CEB190
:102730002068C168490717D5802D15D0402D13D0CA
:102740000168C94309070FD401680025406800905B
:102750002046FFF7DCFE0820606484F8405001202A
:10276000BDE8F8830320FBE72068006835EA000035
:1027700004D00020B842D2D00020F1E70120F9E7D0
:102780000148FFF737B9000068010020FEE709079C
:10279000090E002804DB00F1E02080F800147047E7
:1027A00000F00F0000F1E02080F8141D704702E0F7
:1027B00008C8121F08C1002AFAD1704770470020CC
:1027C00001E001C1121F002AFBD1704710B504219E
:1027D0000348FFF7BFF8BDE8104000F019B800004B
:1027E000D800002000EB4001C1EBC0107F2101EBBD
:1027F000C000FF21B0FBF1F080B24FF47A71884243
:1028000000D908460149096888637047D80000204C
:10281000024900200968886370470000D800002042
:10282000FEF7D0FAFFF70DFDFFF766FBFFF7DCFCC4
:10283000FFF7A6FCFFF758FCFFF738FBFFF7F2FBAA
:10284000FFF7C4FF0020FDF789FD0120FDF786FD9D
:102850000220FDF783FD09210020FDF7A3FE0921D9
:102860000120FDF79FFE09210220FDF79BFE214874
:10287000FEF7E8FE012220492048FFF763FA1E4CCC
:102880000025241FDFF878801E4FE5700126607850
:1028900010B100F039F8657001214046FEF77AFA70
:1028A0000028F4D1E07870B1012817D00228EED1C9
:1028B000FDF716FE3946FDF759FCFDF79EFCE08159
:1028C000E570A670E3E70020FDF70AFE3946FDF744
:1028D0004DFCFDF792FC6081E670D8E70120FDF722
:1028E000FFFD3946FDF742FCFDF787FCA081022081
:1028F000E070CCE7200100200400002068010020E7
:10290000000801400000C842F0B5414C85B00025E8
:1029100020460095027A3F480127A17900783E467B
:10292000032906D004290DD0052920D0062934D04A
:102930005FE08AB3FFF756FF31468DF800606A46C4
:10294000032054E042B3344B012806D038B18DF84F
:1029500000506A463946042049E0012200E0002286
:1029600001211846FEF71BFA8DF80060F1E79AB1D5
:102970002A4B012806D038B18DF800506A463946F6
:10298000052034E0012200E0002201211846FEF774
:1029900006FA8DF80060F1E72BE0FDF7BDFC8DF83D
:1029A0000400A07840B3B4F90A10642051B391FB3D
:1029B000F0F1C9B28DF80510B4F90C1021B391FBF8
:1029C000F0F1C9B28DF80610B4F90E10F1B191FB17
:1029D000F0F0C0B28DF808508DF809508DF807005E
:1029E0008DF80A508DF80B5001AA0821062000F03E
:1029F00017F8257205B0F0BDFF208DF805008DF8A1
:102A00000600E7E7FF21D5E7FF21DBE7FF20E1E74D
:102A10000000002020000020000C014000080140C0
:102A200030B591B00C464FF0FE018DF800108DF8D6
:102A3000011004F103018DF802100E4913006D46D8
:102A400049798DF803108DF804004FF0050107D087
:102A500034B122461946681DFDF764FB641DE1B2DE
:102A6000FA206854491CC9B26846FFF7DDFB11B073
:102A700030BD00000000002001020203040506072B
:102A800008090A0B0C0D0E0F1010000000000000CA
:102A9000000001020304060708090000000001020B
:102AA00003040000C42A00080000002020000000E9
:102AB000AE270008E42A000820000020900500004E
:102AC000BE27000800000000000000000000000019
:102AD00000000000010000001000000000000000E5
:042AE00000127A0066
:04000005080000ED02
:00000001FF
