:020000040800F2
:10000000780500200101000893160008F713000886
:100010009116000891010008D51B0008000000009F
:10002000000000000000000000000000AD16000805
:10003000F90100080000000095160008AF1600083E
:100040001B0100081B0100081B0100081B01000820
:100050001B0100081B0100081B0100081B01000810
:100060001B0100081B0100081B0100081B01000800
:100070001B0100081B0100081B0100081B010008F0
:100080001B0100081B0100081B0100081B010008E0
:100090001B0100081B0100081B0100081B010008D0
:1000A0001B0100081B0100081B0100081B010008C0
:1000B0001B0100081B0100081B0100081B010008B0
:1000C0001B0100081B0100081B0100081B010008A0
:1000D0001B010008BD1B0008C91B00081B0100080C
:1000E0001B0100081B0100081B010008DFF80CD0F1
:1000F00000F03CF800480047151C00087805002077
:100100000648804706480047FEE7FEE7FEE7FEE7B1
:10011000FEE7FEE7FEE7FEE7FEE7FEE71117000851
:10012000ED00000840EA01039B0703D009E008C97D
:10013000121F08C0042AFAD203E011F8013B00F8AC
:10014000013B521EF9D27047D2B201E000F8012BF8
:10015000491EFBD270470022F6E710B513460A4647
:1001600004461946FFF7F0FF204610BD064C074D28
:1001700006E0E06840F0010394E807009847103477
:10018000AC42F6D3FFF7B6FF501D0008701D000803
:10019000FEE700F001B80000164988B101281BD025
:1001A000022825D10846496821F070414160416824
:1001B00041F04051416001225FEAC23100F090B944
:1001C0000846496821F470014160416841F44011DA
:1001D000416001225103F1E70846496821F070614E
:1001E0004160416841F04071416001229103E5E7BF
:1001F0007047000000100140704772B6FEE710B56E
:1002000090F821100022022905D00421816380F892
:100210002020012010BD01680B6823F00E030B6045
:1002200001680B6823F001030B6090F84030C46B49
:10023000012101FA03F3636080F8211080F8202087
:10024000104610BD10B590F821100024022903D0EB
:100250000421816301243DE001680A6822F00E0256
:100260000A6001680A6822F001020A601A4A0168FD
:10027000914201D1012121E0174A1432914201D16A
:1002800010211BE0144A2832914201D1891515E052
:10029000114A3C32914201D189140FE00E4A50328A
:1002A000914202D14FF4803108E00B4A643291420E
:1002B00002D14FF4801101E04FF08071064A083AF4
:1002C0005160012180F82110002180F82010416B3D
:1002D00001B18847204610BD0800024070B50446B1
:1002E00000F004F90546601C02D00448007804447C
:1002F00000F0FCF8401BA042FAD370BD08000020BB
:100300002DE9F84FDFF8B8910024A9F1040B23463A
:100310000F2709F1040AABF1040EC9E00125A5403D
:100320002A40AA427DD1674ED1F804C0ACEB060842
:10033000B44532D014DCBCF1030F3AD009DCBCF177
:10034000000F2AD0BCF1010F1CD0BCF1020F31D13B
:100350001DE0BCF1110F17D0BCF1120F2AD119E02A
:10036000B8F5881F19D006DCB8F5803F15D0B8F570
:10037000801F1FD111E0B8F5001F0ED0B8F5041F83
:1003800018D10AE0CB6815E0CB681B1D12E0CB68E2
:1003900008330FE0CB680C330CE08B682BB1012BDA
:1003A0004FF0080303D0456104E0042302E0056137
:1003B00000E00023FF2A01D8064601E000F1040610
:1003C0004FEA840501D9A5F12005D6F8008007FA87
:1003D00005FC28EA0C0803FA05F548EA0508C6F802
:1003E00000804D68ED0062D5374DAE6946F00106DC
:1003F000AE61AD6924F0030605F001050095334DAB
:1004000006EB050CDCF80850A607360F07FA06F8CD
:1004100025EA0805DFF8B880404503D14FF0000811
:1004200017E044E0DFF8AC80404502D14FF001080E
:100430000FE0DFF8A480404502D14FF0020808E049
:10044000DFF89880404502D14FF0030801E04FF0FB
:10045000040808FA06F848EA0508CCF808804D6850
:10046000D9F80060ED024D4601D5164300E09643F1
:100470002E604D68DAF80060AD02554601D516438E
:1004800000E096432E604D68DBF80060AD035D46EA
:1004900001D5164300E096432E604D68DEF80060FB
:1004A000ED03754601D5164300E096432E60641CAB
:1004B0000D682A46E5407FF431AFBDE8F88F0000B3
:1004C000080401400000111000100240000001402B
:1004D00000080140000C01400010014000140140E0
:1004E0000AB1016170470904FBE700000148806818
:1004F000704700000800002002488168027811441B
:100500008160704708000020074810B5016841F07D
:1005100010010160032000F075F80F2000F006F8CC
:1005200000F024F8002010BD0020024070B50D4DF1
:1005300004464FF47A712878B1FBF0F00A49096853
:10054000B1FBF0F000F0DCFA48B9102C07D2002221
:100550002146501E00F036F800206C6070BD01206E
:1005600070BD000008000020140000200C4808B5F1
:10057000816941F001018161816901F0010100910E
:10058000C16941F08051C161C06900F080500090A4
:100590000448416821F0E06141F00071416008BD0C
:1005A0000010024000000140002809DB00F01F029B
:1005B000012191404009800000F1E020C0F80011C5
:1005C00070470000F0B40E4B1B680C46C3F30223C7
:1005D000C3F10705042D00D90425191D072901D2EF
:1005E000002300E0DB1E012606FA05F1491E21402A
:1005F00099409E40761E16403143F0BC01F0EBBAA4
:100600000CED00E0064900F0070208684FF6FF0312
:10061000184040EA0220034A104308607047000077
:100620000CED00E00000FA052DE9F0470F4605004B
:1006300061D0434E306800F00700B84209D23068FC
:1006400020F0070038433060306800F00700B842FF
:1006500051D128683B4C810712D5400703D560680B
:1006600040F4E06060602878000703D5606840F4DB
:10067000605060606068A96820F0F0000843606026
:100680002878C00728D06868012810D0216802287F
:1006900010D0890700292EDA616821F00301014397
:1006A0006160FFF723FF804641F288390DE0216841
:1006B0008903EFE78901EDE7FFF718FFA0EB0801D9
:1006C000494502D90320BDE8F0876068696800F0F9
:1006D0000C00B0EB810FEFD1306800F00700B8429A
:1006E0000BD9306820F0070038433060306800F0E4
:1006F0000700B84201D00120E5E72878400705D57A
:100700006068E96820F4E0600843606028780007CA
:1007100006D56068296920F4605040EAC100606035
:1007200000F038F86168084AC1F30311515CC84011
:100730000649086006480068FFF7F8FE0020C2E797
:100740000020024000100240361D00081400002066
:100750000C0000200448054900684968044AC1F3B8
:100760000221515CC8407047140000200010024074
:10077000461D00080448054900684968044AC1F359
:10078000C221515CC8407047140000200010024094
:10079000461D00080E4A51680E4801F00C03042B58
:1007A00011D0082B0FD10C48C1F38343C903C05C9F
:1007B0000AD55168084AC1F34041921E515C054A6E
:1007C0005043B0FBF1F070470449484370470000C4
:1007D0000010024000127A00261D000800093D00AA
:1007E0002DE9F84F040070D02078C04DC00749D0E3
:1007F0006868C0F38100012807D06868C0F38100F1
:10080000022809D16868C00306D52868800339D555
:1008100060680028E7D035E06068B0F5803F0BD015
:1008200010B1B0F5A02F11D0286820F480302860D6
:10083000286820F4802002E0286840F48030286096
:10084000606890B1FFF752FE06460AE0286840F45F
:1008500080202860F0E700BFFFF748FE801B642877
:1008600073D828688003F7D50CE0FFF73FFE0646F3
:1008700005E000BFFFF73AFE801B6428F0D8286827
:100880008003F7D420789A4E80074FF001094FF08B
:10089000000839D5686810F00C0F07D06868C0F3FD
:1008A0008100022809D16868C00306D4286880073F
:1008B00014D52069012808D110E02069B0B1C6F82C
:1008C0000090FFF713FE074605E00AE1FFF70EFE72
:1008D000C01B0228C4D828688007F7D5286861693A
:1008E00020F0F80040EAC10028600DE0C6F8008062
:1008F000FFF7FCFD074604E0FFF7F8FDC01B0228E8
:1009000023D828688007F7D4207800072CD57948A9
:10091000A169D9B1C0F80090FFF7E8FD074604E0EF
:10092000FFF7E4FDC01B02280FD8686A8007F7D5DF
:1009300071484FF4FA510068B0FBF1F0009000BF2D
:100940000098411E0091FAD20EE080E0C0F80080CD
:10095000FFF7CCFD074604E0FFF7C8FDC01B0228E7
:1009600075D8686A8007F7D42078400760D5E869B1
:100970000027C00008D4E86940F08050E861E869C9
:10098000012700F0805000905C480168C90513D42D
:100990000168834641F480710160FFF7A7FD82463C
:1009A00006E000BFFFF7A2FDA0EB0A0064284ED8C6
:1009B000DBF80000C005F5D5E06801280AD008B1D1
:1009C000052813D0286A20F001002862286A20F048
:1009D000040002E0286A40F001002862E06841F269
:1009E000883B98B1FFF782FD82460BE0286A40F011
:1009F00004002862EEE700BFFFF778FDA0EB0A01D4
:100A000059455AD8286A8007F6D50CE0FFF76EFDE5
:100A1000824605E0FFF76AFDA0EB0A0159454CD874
:100A2000286A8007F6D41FB1E86920F08050E86199
:100A3000E06988B36968C1F38101022944D00228C2
:100A4000C6F8608004D0FFF751FD044638E034E07A
:100A5000FFF74CFD074604E0FFF748FDC01B0228E6
:100A60002BD828688001F7D4206AB0F5803F05D1E3
:100A70006868A16820F4003008436860D4E9080180
:100A80000843696821F4741108436860C6F86090EF
:100A9000FFF72CFD044606E025E000BFFFF726FD2A
:100AA000001B022809D828688001F7D51BE000BF89
:100AB000FFF71CFD001B022802D90320BDE8F88FB8
:100AC00028688001F4D40EE00128F7D06868226A13
:100AD00000F48031914204D1616A00F470108842C0
:100AE00001D00120EAE70020E8E700000010024002
:100AF0000000424280044242140000200070004086
:100B000010B5401EB0F1807F01D3012010BD4FF021
:100B1000E02460610F21601701F05DF80020A06102
:100B200007202061002010BD70B590F83C20012AFC
:100B300026D0012480F83C40022280F83D20036842
:100B40005A689D6822F070060A6832435A600D4B5D
:100B500002689A4208D0B2F1804F05D00A4B9A42FF
:100B600002D00A4B9A4204D1496825F08003194308
:100B7000916080F83D40002180F83C10084670BD2F
:100B8000022070BD002C014000040040000800401D
:100B900010B5040003D094F83D0010B107E0012027
:100BA00010BD002084F83C00204600F01FF8022011
:100BB00084F83D00211D206800F0ACFD012084F880
:100BC000460084F83E0084F83F0084F8400084F832
:100BD000410084F8420084F8430084F8440084F81B
:100BE000450084F83D00002010BD000008B50C4A07
:100BF00001680C48914207D1C16941F00201C1610D
:100C0000C06900F0020009E0074A914207D1C169BA
:100C100041F00401C161C06900F00400009008BD0A
:100C200000040040001002400008004090F83D1011
:100C3000012901D001207047022180F83D10006891
:100C40000B49884208D0B0F1804F05D0094988424D
:100C500002D00949884204D1816801F007010629C0
:100C600003D0016841F001010160002070470000DD
:100C7000002C0140000400400008004070B504460C
:100C800090F83C000025012817D0012684F83C602C
:100C9000022084F83D002068826822F0770222F466
:100CA0007F4282600868502838D00DDC20284FD061
:100CB00005DC90B3102811D14AE0022070BD302825
:100CC00046D040280AD13BE060282FD070280DD0B4
:100CD000B0F5805F03D0B0F5005F12D0012584F835
:100CE0003D60002084F83C00284670BDCB68D1E907
:100CF0000121206800F04AFD2068816841F07701F9
:100D000009E0CB68D1E90121206800F03FFD2068AF
:100D1000816841F480418160E1E719E0CA6849686F
:100D2000206800F0E7FD5021206806E0CA684968A5
:100D3000206800F0F0FD6021206800F031FDCEE772
:100D4000CA684968206800F0D5FD40212068F4E7B2
:100D5000226801461046F0E700B585B000210091F9
:100D600001910291039100680B49884211D10B480F
:100D7000816941F0040181618069694600F00400E5
:100D80000490802000900220019003900448FFF717
:100D9000B7FA05B000BD000000040040001002409A
:100DA0000008014070B5044690F83C0000260D464E
:100DB00001280FD0012084F83C006AB1042A1DD01C
:100DC000082A2FD00C2A3FD00126002084F83C00AE
:100DD000304670BD022070BD206800F0E9FC20683C
:100DE000816941F0080181612068816921F0040175
:100DF0008161206881692A69114311E0206800F04F
:100E0000FFFC2068816941F400618161206881698B
:100E100021F480618161206881692A6941EA0221A7
:100E20008161D2E7206800F017FD2068C16941F0B8
:100E30000801C1612068C16921F00401C161206815
:100E4000C1692A69114311E0206800F031FD206872
:100E5000C16941F40061C1612068C16921F4806108
:100E6000C1612068C1692A6941EA0221C161ACE718
:100E700010B5040003D094F83D0010B107E0012044
:100E800010BD002084F83C00204600F01EF802202F
:100E900084F83D00211D206800F03CFC012084F80E
:100EA000460084F83E0084F83F0084F8400084F84F
:100EB000410084F8420084F8430084F8440084F838
:100EC000450084F83D00002010BD70477047704712
:100ED000F8B5016804460868CA684B6910F00F0F3E
:100EE0004FF0000559D003F0010602F49077374324
:100EF00065D0C10705D0D10503D5616C41F0010172
:100F00006164410705D5D90703D0616C41F0020146
:100F10006164810705D5D90703D0616C41F00401F4
:100F20006164010707D502F02001314303D0616CF1
:100F300041F008016164616C00293AD0800604D553
:100F4000900602D5204600F027FD20684069616CBC
:100F5000C0F38010090700D460B3204600F0F5FC10
:100F600020684069400621D52068143050E8001FF1
:100F700021F0400140E80012002AF5D1E06BA8B151
:100F80006D494163E06BFFF75DF9002811D0E06B1C
:100F9000416B01B0BDE8F040084783060FD59306CA
:100FA0000DD52046BDE8F84000F0F6BC2046FFF71E
:100FB0008EFFF8BD2046FFF78AFF6564F8BD266BFB
:100FC0002023012E7CD1C6067AD5D60678D50868AE
:100FD0004868009048694FF00206400640D5E16B32
:100FE000086840680004000CE8D0A28D8242E5D970
:100FF000E085886920282DD020680C3050E8001F3B
:1010000021F4807140E80012002AF5D120681430E4
:1010100050E8001F21F0010140E80012002AF5D13C
:101020002068143050E8001F21F0400140E8001211
:10103000002AF5D184F84230256320680C3050E84E
:10104000001F21F0100140E80012002AF5D1E06BEA
:10105000FFF7D5F86663A08DE18D401A81B22AE0D2
:10106000A08DE18D401A81B2E08D0028A6D0002924
:10107000A4D022680C3252E8000F20F4907042E8AD
:101080000007002FF5D12068143050E8002F22F01F
:10109000010240E80027002FF5D184F84230256393
:1010A00020680C3050E8002F22F0100240E80023A6
:1010B000002BF5D166632046FFF708FFF8BDFFE778
:1010C00005062BD5150629D594F841002128F5D120
:1010D000A068B0F5805F01D12069B0B1206A411CE1
:1010E0002162216800784860E08C401E0004000CFA
:1010F000E084E3D12068C16821F08001C1602068EC
:10110000C16841F04001C160D8E7206A0088C0F39F
:1011100008004860206A801C2062E5E74006CDD5C3
:101120005006CBD5CA68204622F04002CA6084F837
:10113000413000F05FF9C1E73B19000870B50400C9
:1011400004D094F84100002510B106E0012070BDE4
:1011500084F84050204600F023F8242084F8410011
:101160002068C16821F40051C160204600F076FC7F
:101170002068016921F4904101612068416921F0F2
:101180002A0141612068C16841F40051C160656471
:10119000202084F8410084F842006563002070BD7F
:1011A00030B585B000240094019402940394324D2C
:1011B0000368324802210322AB422ED1836943F4F3
:1011C00080438361836903F480430493836943F01C
:1011D0000803836180692A4D00F0080004904020D4
:1011E000CDE90001039269462846FFF789F880207F
:1011F000CDE90004694628460294FFF781F82148AA
:10120000416841F0E06141F0040141600022114673
:101210002520FFF7D7F9252029E01B4DAB4228D127
:10122000C36943F40033C361C36903F40033049317
:10123000836943F0040383618069144D00F0040066
:1012400004900420CDE90001039269462846FFF787
:1012500057F80820CDE90004694628460294FFF7B4
:101260004FF8002211462620FFF7ACF92620FFF7A1
:101270009BF905B030BD000000380140001002406D
:10128000000C014000000140004400400008014003
:1012900090F84230202B01D00220704721B11AB1C2
:1012A0000023036300F036BC01207047F0B40068EF
:1012B0002449884244D12448067802460123917883
:1012C000547906250022072E2FD2DFE806F0040805
:1012D0000C1417203500FE2927D1037025E0FE29C4
:1012E00007D102210EE041718271032901D303214C
:1012F00008E0027019E0C170042103E00171032CC1
:1013000002D90521017010E0057043700DE083796A
:10131000402B04D20D4AD1545B1C837100E0027053
:10132000D9B2E41EA14200DB0570F0BC06490122DF
:10133000891C0748FFF7ACBFFA29DAD14370D8E718
:10134000F0BC70470044004000000020180000205E
:10135000300100202DE9F843044690F841009846FA
:1013600016460D46202802D00220BDE8F88385B13C
:101370007EB100206064212084F84100FFF7B6F8B8
:10138000A6848146E684A0682027B0F5805F02D05D
:1013900003E00120E9E7206910B12E4600250EE0A8
:1013A00000260CE08021204600F0CFFBA8B9C6B192
:1013B00016F8010B21684860E08C401EE084E08C48
:1013C0004B464FF00002CDF800800028EAD14FF0E4
:1013D0004001204600F0B9FB40B184F84170032081
:1013E000C3E735F8020BC0F30800E3E784F8417067
:1013F0000020BAE77047FEE72DE9F04385B00024EE
:1014000043480094019402940394816941F01001CF
:101410008161816901F010010491816941F020012D
:101420008161816901F020010491816941F0040129
:101430008161816901F004010491816941F0080131
:1014400081618069334F00F008004FF460450490DB
:10145000002229463846FFF743F8DFF8BC90002207
:1014600041F623114846FFF73BF8DFF8B080002231
:101470004DF21B114046FFF733F800950326012576
:101480000396CDE9015469463846FEF739FF40F22C
:1014900023100227CDE90005CDE9024769464846F9
:1014A000FEF72EFF10208DE8310069464846FEF712
:1014B00027FF4020CDE90004694648460294FEF724
:1014C0001FFF41F21B10CDE90005CDE90247694637
:1014D0004046FEF715FF6803CDE900046946404623
:1014E0000294FEF70DFFB003CDE90005CDE90246F9
:1014F00069464046FEF704FFF002CDE90005CDE95C
:10150000024669464846FEF7FBFE05B0BDE8F0839B
:10151000001002400010014000080140000C014092
:1015200010B58EB000240794089409940A940B9483
:101530001C2168460C94FEF70EFE1E481C49C0E9AB
:1015400000144FF6FF71C0E9024104618461FFF7A6
:101550001FFB08B1FEF751FE4FF48050079007A91A
:101560001448FFF78BFB08B1FEF747FE1148FFF761
:101570007FFC08B1FEF741FE0B940BA90D480C94BB
:10158000FFF7D2FA08B1FEF738FE6020CDE900047B
:1015900002940422694607480494FFF703FC08B14B
:1015A000FEF72BFE0348FFF7D7FB0EB010BD00007F
:1015B000000400405800002010B586B000241748F1
:1015C00000940194029403940494134905940160D7
:1015D0004721C0E901144FF6FF71C0E9031484618B
:1015E000FFF7D6FA08B1FEF708FE4FF480500090DE
:1015F00069460A48FFF742FB08B1FEF7FEFD049476
:1016000004A906480594FFF78FFA002801D0FEF7D9
:10161000F4FD06B010BD000000080040A00000204E
:101620000C4810B50A4901604FF4E13141600021D6
:1016300081600C22C160C0E904128161C161FFF7C1
:101640007DFD002803D0BDE81040FEF7D6BD10BDDB
:1016500000380140E80000200C4810B50A4901603C
:101660004FF4E1314160002181600C22C160C0E98A
:1016700004128161C161FFF761FD002803D0BDE85C
:101680001040FEF7BABD10BD0044004030010020FC
:10169000FEE7FEE7704700000A4601464FF47A7302
:1016A0000148FFF757BE0000300100207047FEF7E9
:1016B00023BF30B58FB028216846FEF74CFD1421BA
:1016C0000AA8FEF748FD01210804CDE90010002416
:1016D000029402250491CDE907504FF4E0100990DF
:1016E0006846FFF77DF808B172B6FEE70F20CDE936
:1016F0000A054FF48060CDE90C4002210AA80E943F
:10170000FEF792FF002801D072B6FEE70FB030BDA1
:1017100070470000F0B50268194B1A4C1A4D4FF093
:101720008047984205D0B84203D0A04201D0A842D9
:1017300003D122F070064A683243984205D0B8427D
:1017400003D0A04201D0A84203D122F44074CA6859
:1017500022434C6922F08002224302608A68C262FE
:101760000A688262984201D10969016301214161DD
:101770000169C90703D0016921F001010161F0BDD0
:10178000002C0140000400400008004010B58468AF
:1017900042EA032224F47F440A432243826010BDBC
:1017A000826822F070020A4342F0070181607047AC
:1017B00030B5036A026A22F001020262426884695B
:1017C00024F073050C682C4323F002058B682B432F
:1017D0000A4DA8420BD123F00805CB6822F44072D1
:1017E0002B434D6923F0040315438A692A43426061
:1017F000846149684163036230BD0000002C0140F0
:1018000030B5026A036A23F01003036243688469F7
:101810000D6824F4E64444EA05248D6822F0200291
:1018200042EA05120B4DA8420ED1CD6822F080028B
:1018300042EA05124D6923F4406343EA85038D694A
:1018400022F0400243EA8503436084614968816372
:10185000026230BD002C014030B5036A026A22F4F6
:10186000807202624268C46923F4007324F0730535
:101870000C682C438D6843EA05230C4DA8420ED119
:10188000CD6823F4006343EA05234D6922F44052F6
:1018900042EA05128D6923F4806342EA0512426030
:1018A000C4614968C163036230BD0000002C01407F
:1018B00030B5046A026A22F4805202624268C36947
:1018C0000D6823F4E64343EA05238D6824F40054AD
:1018D00044EA0534064DA84204D14D6922F4804201
:1018E00042EA85124260C36149680164046230BD06
:1018F000002C014010B5036A046A24F0010404625C
:10190000846924F0F00444EA021423F00A020A4332
:101910008461026210BD10B5036A046A24F01004E9
:101920000462846923F0A00324F4704444EA023280
:1019300043EA01118261016210BD10B5406A0021C5
:10194000C185C184FFF7C3FA10BD01680C3151E8AD
:10195000002F22F4907241E80023002BF5D101689A
:10196000143151E8002F22F0010241E80023002B3E
:10197000F5D1016B012909D101680C3151E8002F23
:1019800022F0100241E80023002BF5D1202180F83D
:10199000421000210163704708B590F842102229D7
:1019A00001D0022008BD82684FF480539A4201D1D1
:1019B000016921B1816A9A421BD04AB10AE00268EA
:1019C000816A5268C2F308020A80816A891C08E0B1
:1019D000026972B10268526802F07F020A70816A7D
:1019E000491C8162C18D491E0904090CC18503D0BF
:1019F0001BE002685268F1E70168CA6822F0200221
:101A0000CA600168CA6822F48072CA6001684A69C3
:101A100022F001024A61202180F842100021416336
:101A2000026B012A03D0FFF741FC002008BD0163CF
:101A300001680C3151E8002F22F0100241E8002328
:101A4000002BF5D101680A68D20602D50A684968F8
:101A50000091818DFFF73AFAE7E7000070B5044680
:101A600000680169E26821F4405111430161216974
:101A7000A0680843616908432168CA6841F20C63A1
:101A80009A430243CA6020684169A26921F4407107
:101A9000114341611E492068884202D1FEF76AFE67
:101AA00001E0FEF757FE00EBC00101EB0012606899
:101AB00064218000B2FBF0F3B3FBF1F36FF0180682
:101AC0007343B2FBF0F5B2FBF0F605EB830532236E
:101AD00003EB0515B5FBF1F5B6FBF1F605F0F005E6
:101AE00005EB0615B2FBF0F6B2FBF0F0B0FBF1F03F
:101AF0006FF01802504306EB800003EB0010B0FBC0
:101B0000F1F0216800F00F002844886070BD0000EB
:101B10000038014081628285C28500214164222112
:101B200080F84210016921B10168CA6842F48072EC
:101B3000CA6001684A6942F001024A610068C168EE
:101B400041F02001C160002070472DE9F84398461C
:101B500017460D460446089E24E0701C22D0FEF76E
:101B6000C5FCA0EB0800B0421AD8CEB12068C1680D
:101B7000490717D5802D15D0402D13D00168C943D2
:101B800009070FD401680025406800902046FFF740
:101B9000DCFE0820606484F840500120BDE8F88332
:101BA0000320FBE72068006835EA000004D000202D
:101BB000B842D2D00020F1E70120F9E70148FFF751
:101BC00087B90000E80000200148FFF781B9000054
:101BD00030010020FEE70907090E002804DB00F1B0
:101BE000E02080F80014704700F00F0000F1E020C2
:101BF00080F8141D704702E008C8121F08C1002AAF
:101C0000FAD170477047002001E001C1121F002A7D
:101C1000FBD17047FEF778FCFFF74BFDFFF7ECFBBD
:101C2000FFF7FEFCFFF718FDFFF7C6FCFFF778FC97
:101C30000020FEF7AEFA0120FEF7ABFA0220FEF715
:101C4000A8FA0A48FEF7F2FF012209490948FFF7FE
:101C50001FFB074C0025A41E607810B100F00CF8A3
:101C600065700120FEF73AFBF6E70000A0000020B7
:101C70000200002030010020F8B5114D002400942E
:101C80002879012704280FD1A87968B10D480126C9
:101C900001780D48012909D051B18DF800406A46FC
:101CA0003946042000F012F8AC71F8BD012200E0C2
:101CB00000220121FEF714FC8DF80060EFE7000020
:101CC0000000002018000020000C014030B591B049
:101CD0000C464FF0FE018DF800108DF8011004F154
:101CE00003018DF802100E4913006D46C9788DF876
:101CF00003108DF804004FF0050107D034B12246DF
:101D00001946681DFEF70EFA641DE1B2FA20685408
:101D1000491CC9B26846FFF7BFFC11B030BD0000D6
:101D200000000020010202030405060708090A0B4F
:101D30000C0D0E0F1010000000000000000001024A
:101D40000304060708090000000001020304000064
:101D5000701D00080000002018000000F61B00089D
:101D6000881D00081800002060050000061C0008FF
:101D70000000000000000000010000001000000052
:081D80000000000000127A00CF
:04000005080000ED02
:00000001FF
