:020000040800F2
:100000008005002001010008AB1C00080F1A000841
:10001000A91C0008D9020008ED210008000000001A
:10002000000000000000000000000000C51C0008E7
:10003000E107000800000000AD1C0008C71C000814
:100040001B0100081B0100081B0100081B01000820
:100050001B0100081B0100081B0100081B01000810
:100060001B0100081B0100081B0100081B01000800
:100070001B0100081B0100081B0100081B010008F0
:100080001B0100081B0100081B0100081B010008E0
:100090001B0100081B0100081B0100081B010008D0
:1000A0001B0100081B0100081B0100081B010008C0
:1000B0001B0100081B0100081B0100081B010008B0
:1000C0001B0100081B0100081B0100081B010008A0
:1000D0001B010008D5210008E12100081B010008D0
:1000E0001B0100081B0100081B010008DFF80CD0F1
:1000F00000F0D4F8004800472D22000880050020B9
:100100000648804706480047FEE7FEE7FEE7FEE7B1
:10011000FEE7FEE7FEE7FEE7FEE7FEE7291D000833
:10012000ED00000840EA01039B0703D009E008C97D
:10013000121F08C0042AFAD203E011F8013B00F8AC
:10014000013B521EF9D27047D2B201E000F8012BF8
:10015000491EFBD270470022F6E710B513460A4647
:1001600004461946FFF7F0FF204610BD80EA010261
:1001700010B502F00043400022D04A001FD0010E0B
:1001800001EB1261C0F35600C2F3560240F40000C6
:1001900042F40002A0FB022000047F39140400D0C6
:1001A000401C50EA124001D44000491EC2B20C0665
:1001B00004EBD010401C4008802A02D003E000204D
:1001C00010BD20F00100002900DA0020184310BD06
:1001D000420005D0C0F3C7525242914201DC0020D8
:1001E000704700EBC1507047C10F80EAE0700844CF
:1001F000CA079623002100F022B800F0004220F048
:100200000040C10DC0F3160040F400007F2901DA60
:1002100000207047962903DCC1F19601C84001E037
:1002200096398840002AF4D0404270470029A8BF80
:100230007047401C490008BF20F00100704710B40F
:10024000B0FA80FC00FA0CF050EA010404BF10BCC4
:10025000704749B1CCF1200421FA04F411FA0CF1F1
:1002600018BF012121430843A3EB0C01CB1D4FEA2A
:1002700000614FEA102042BF002010BC704700EB25
:10028000C35010440029A4BF10BC7047401C490053
:1002900008BF20F0010010BC70470000064C074D5D
:1002A00006E0E06840F0010394E807009847103446
:1002B000AC42F6D3FFF71EFF90240008B0240008DC
:1002C00010B51021034800F0FFFB012800D00020EA
:1002D00010BD000000080140FEE7000070B5084CAA
:1002E0000546002021684862204600F097FF2068FC
:1002F000416AA942FCD3BDE87040014800F0B6BF96
:10030000A800002000F0F2B82DE9F04700255D4C70
:1003100007462E464FF400584FF480494FF4004AE8
:100320006D0827B1012F38D0022F4FD141E061680D
:10033000204621F470016160616841F44011616000
:100340000022414600F0C5FB0220FFF7C7FF012253
:100350004146204600F0BDFB606820F470006060FC
:10036000606840F4000060600820FFF7B7FF414676
:10037000204600F0A9FB08B145F080053220FFF7C8
:10038000ADFF6168204621F470016160616841F44D
:1003900040116160012241465EE06168204621F023
:1003A00070616160616841F040716160002249469E
:1003B0000AE06168204621F070416160616841F0A7
:1003C000405161600022514600F083FB0220FFF79C
:1003D00085FF012F02D0022F1AD10CE001224946DD
:1003E000204600F076FB606820F070606060606816
:1003F00040F000600BE001225146204600F069FB0E
:10040000606820F070406060606840F000406060AC
:100410000820FFF763FF012F02D0022F09D101E06E
:10042000494600E05146204600F04EFB08B145F039
:1004300080053220FFF752FF012F02D0022F0DD18D
:1004400014E06168204621F070616160616841F0EC
:10045000407161600122494600F03BFB761CF6B218
:10046000082EFFF45DAF2846BDE8F087616820469E
:1004700021F070416160616841F04051616001228A
:100480005146E9E70010014070B5054600F08EF8CE
:1004900038B3CC21284600F01FF94421284600F04B
:1004A0001BF9642000F00EFA284600F07FF8CC21FA
:1004B000284600F011F9BE21284600F00DF9284623
:1004C000FFF722FF04462846FFF71EFF44EA0020FC
:1004D00000B2FFF789FEBDE870406FF00301FFF73F
:1004E00077BE014870BD000000007AC4164988B18B
:1004F00001281BD0022825D10846496821F0704107
:100500004160416841F04051416001225FEAC231DF
:1005100000F0DFBA0846496821F470014160416883
:1005200041F44011416001225103F1E70846496856
:1005300021F070614160416841F0407141600122E9
:100540009103E5E7704700000010014070B50546D3
:10055000A1F10900042805D209291FD00A291FD0BA
:100560000B291FD07F24284600F020F800281BD03C
:10057000CC21284600F0B0F84E21284600F0ACF817
:100580005521284600F0A8F80021284600F0A4F8DC
:1005900021462846BDE8704000F09EB81F24E2E7DF
:1005A0003F24E0E75F24DEE770BD00002DE9F0475F
:1005B000484C06004FF000054FF4167808D04FF471
:1005C00080474FF40049012E28D0022E3FD131E060
:1005D0006168204621F470016160616841F4401156
:1005E00061604FF400570022394600F072FA40462D
:1005F000FFF774FE01223946204600F06AFA1E20F9
:10060000FFF76CFE606820F470006060606840F482
:10061000000060600A20FFF761FE48E06168204644
:1006200021F070616160616841F040716160002299
:1006300039460AE06168204621F0704161606168D6
:1006400041F0405161600022494600F042FA4046C4
:10065000FFF744FE012E02D0022E08D102E0012253
:10066000394601E001224946204600F032FA1E20B8
:10067000FFF734FE012E02D0022E10D107E0606891
:1006800020F070606060606840F0006006E06068C4
:1006900020F070406060606840F0004060600A20B8
:1006A000FFF71CFE012E02D0022E08D101E03946D0
:1006B00000E04946204600F007FA00B901254FF452
:1006C000F070FFF70BFE3046FFF710FF2846BDE83D
:1006D000F0870000001001402DE9F0473F4C0D4627
:1006E000070004D0012F0CD0022F1AD111E060684E
:1006F00020F470006060606840F440106060002684
:100700001AE0606820F070606060606840F04070DF
:1007100006E0606820F070406060606840F0405023
:100720006060002647B14FF480484FF40049012F24
:1007300010D0022F16D110E04FF40058002241468D
:10074000204600F0C6F90220FFF7C8FDE80711D0E7
:10075000012210E00022414601E0002249462046E5
:1007600000F0B7F90220FFF7B9FD012F0BD0022FDF
:1007700019D10FE000224146204600F0AAF93C20A2
:10078000FFF7ACFD17E0E80701D0012200E00022EE
:10079000414605E0E80701D0012200E00022494679
:1007A000204600F096F93C20FFF798FD012F02D07B
:1007B000022F08D102E00122414601E00122494610
:1007C000204600F086F96D080220FFF787FD761CB1
:1007D000F6B2082EA6D3BDE8F08700000010014055
:1007E000704772B6FEE710B590F82110002202297A
:1007F00005D00421816380F82020012010BD01680C
:100800000B6823F00E030B6001680B6823F00103F3
:100810000B6090F84030C46B012101FA03F3636070
:1008200080F8211080F82020104610BD10B590F8F7
:1008300021100024022903D00421816301243DE01A
:1008400001680A6822F00E020A6001680A6822F054
:1008500001020A601A4A0168914201D1012121E096
:10086000174A1432914201D110211BE0144A283258
:10087000914201D1891515E0114A3C32914201D1D2
:1008800089140FE00E4A5032914202D14FF4803168
:1008900008E00B4A6432914202D14FF4801101E02A
:1008A0004FF08071064A083A5160012180F821100A
:1008B000002180F82010416B01B18847204610BD0F
:1008C0000800024070B5044600F008F90546601CB7
:1008D00002D004480078044400F000F9401BA04214
:1008E000FAD370BD100000202DE9F84FDFF8B89161
:1008F0000024A9F1040B23460F2709F1040AABF1E8
:10090000040EC9E00125A5402A40AA427DD1674EC8
:10091000D1F804C0ACEB0608B44532D014DCBCF10D
:10092000030F3AD009DCBCF1000F2AD0BCF1010F53
:100930001CD0BCF1020F31D11DE0BCF1110F17D05A
:10094000BCF1120F2AD119E0B8F5881F19D006DCC6
:10095000B8F5803F15D0B8F5801F1FD111E0B8F56C
:10096000001F0ED0B8F5041F18D10AE0CB6815E0BF
:10097000CB681B1D12E0CB6808330FE0CB680C334B
:100980000CE08B682BB1012B4FF0080303D04561BD
:1009900004E0042302E0056100E00023FF2A01D8FF
:1009A000064601E000F104064FEA840501D9A5F1ED
:1009B0002005D6F8008007FA05FC28EA0C0803FA9F
:1009C00005F548EA0508C6F800804D68ED0062D5D7
:1009D000374DAE6946F00106AE61AD6924F00306FD
:1009E00005F001050095334D06EB050CDCF80850C9
:1009F000A607360F07FA06F825EA0805DFF8B880DB
:100A0000404503D14FF0000817E044E0DFF8AC8028
:100A1000404502D14FF001080FE0DFF8A4804045C7
:100A200002D14FF0020808E0DFF89880404502D17B
:100A30004FF0030801E04FF0040808FA06F848EA0E
:100A40000508CCF808804D68D9F80060ED024D46E5
:100A500001D5164300E096432E604D68DAF8006039
:100A6000AD02554601D5164300E096432E604D6811
:100A7000DBF80060AD035D4601D5164300E0964308
:100A80002E604D68DEF80060ED03754601D5164313
:100A900000E096432E60641C0D682A46E5407FF412
:100AA00031AFBDE8F88F00000804014000001110CC
:100AB000001002400000014000080140000C01400D
:100AC00000100140001401408068084000D001205F
:100AD00070470AB1016170470904FBE7014880686B
:100AE000704700001000002002488168027811441D
:100AF0008160704710000020074810B5016841F080
:100B000010010160032000F075F80F2000F006F8D6
:100B100000F024F8002010BD0020024070B50D4DFB
:100B200004464FF47A712878B1FBF0F00A4909685D
:100B3000B1FBF0F000F0DCFA48B9102C07D200222B
:100B40002146501E00F036F800206C6070BD012078
:100B500070BD0000100000201C0000200C4808B5EB
:100B6000816941F001018161816901F00101009118
:100B7000C16941F08051C161C06900F080500090AE
:100B80000448416821F0E06141F00071416008BD16
:100B90000010024000000140002809DB00F01F02A5
:100BA000012191404009800000F1E020C0F80011CF
:100BB00070470000F0B40E4B1B680C46C3F30223D1
:100BC000C3F10705042D00D90425191D072901D2F9
:100BD000002300E0DB1E012606FA05F1491E214034
:100BE00099409E40761E16403143F0BC01F0FFBA9A
:100BF0000CED00E0064900F0070208684FF6FF031D
:100C0000184040EA0220034A104308607047000081
:100C10000CED00E00000FA052DE9F0470F46050055
:100C200061D0434E306800F00700B84209D2306806
:100C300020F0070038433060306800F00700B84209
:100C400051D128683B4C810712D5400703D5606815
:100C500040F4E06060602878000703D5606840F4E5
:100C6000605060606068A96820F0F0000843606030
:100C70002878C00728D06868012810D02168022889
:100C800010D0890700292EDA616821F003010143A1
:100C90006160FFF723FF804641F288390DE021684B
:100CA0008903EFE78901EDE7FFF718FFA0EB0801E3
:100CB000494502D90320BDE8F0876068696800F003
:100CC0000C00B0EB810FEFD1306800F00700B842A4
:100CD0000BD9306820F0070038433060306800F0EE
:100CE0000700B84201D00120E5E72878400705D584
:100CF0006068E96820F4E0600843606028780007D5
:100D000006D56068296920F4605040EAC10060603F
:100D100000F038F86168084AC1F30311515CC8401B
:100D20000649086006480068FFF7F8FE0020C2E7A1
:100D30000020024000100240762400081C00002021
:100D4000140000200448054900684968044AC1F3BA
:100D50000221515CC84070471C0000200010024076
:100D6000862400080448054900684968044AC1F31C
:100D7000C221515CC84070471C0000200010024096
:100D8000862400080E4A51680E4801F00C03042B1B
:100D900011D0082B0FD10C48C1F38343C903C05CA9
:100DA0000AD55168084AC1F34041921E515C054A78
:100DB0005043B0FBF1F070470449484370470000CE
:100DC0000010024000127A006624000800093D006D
:100DD0002DE9F84F040070D02078C04DC00749D0ED
:100DE0006868C0F38100012807D06868C0F38100FB
:100DF000022809D16868C00306D52868800339D560
:100E000060680028E7D035E06068B0F5803F0BD01F
:100E100010B1B0F5A02F11D0286820F480302860E0
:100E2000286820F4802002E0286840F480302860A0
:100E3000606890B1FFF752FE06460AE0286840F469
:100E400080202860F0E700BFFFF748FE801B642881
:100E500073D828688003F7D50CE0FFF73FFE0646FD
:100E600005E000BFFFF73AFE801B6428F0D8286831
:100E70008003F7D420789A4E80074FF001094FF095
:100E8000000839D5686810F00C0F07D06868C0F307
:100E90008100022809D16868C00306D42868800749
:100EA00014D52069012808D110E02069B0B1C6F836
:100EB0000090FFF713FE074605E00AE1FFF70EFE7C
:100EC000C01B0228C4D828688007F7D52868616944
:100ED00020F0F80040EAC10028600DE0C6F800806C
:100EE000FFF7FCFD074604E0FFF7F8FDC01B0228F2
:100EF00023D828688007F7D4207800072CD57948B4
:100F0000A169D9B1C0F80090FFF7E8FD074604E0F9
:100F1000FFF7E4FDC01B02280FD8686A8007F7D5E9
:100F200071484FF4FA510068B0FBF1F0009000BF37
:100F30000098411E0091FAD20EE080E0C0F80080D7
:100F4000FFF7CCFD074604E0FFF7C8FDC01B0228F1
:100F500075D8686A8007F7D42078400760D5E869BB
:100F60000027C00008D4E86940F08050E861E869D3
:100F7000012700F0805000905C480168C90513D437
:100F80000168834641F480710160FFF7A7FD824646
:100F900006E000BFFFF7A2FDA0EB0A0064284ED8D0
:100FA000DBF80000C005F5D5E06801280AD008B1DB
:100FB000052813D0286A20F001002862286A20F052
:100FC000040002E0286A40F001002862E06841F273
:100FD000883B98B1FFF782FD82460BE0286A40F01B
:100FE00004002862EEE700BFFFF778FDA0EB0A01DE
:100FF00059455AD8286A8007F6D50CE0FFF76EFDF0
:10100000824605E0FFF76AFDA0EB0A0159454CD87E
:10101000286A8007F6D41FB1E86920F08050E861A3
:10102000E06988B36968C1F38101022944D00228CC
:10103000C6F8608004D0FFF751FD044638E034E084
:10104000FFF74CFD074604E0FFF748FDC01B0228F0
:101050002BD828688001F7D4206AB0F5803F05D1ED
:101060006868A16820F4003008436860D4E908018A
:101070000843696821F4741108436860C6F86090F9
:10108000FFF72CFD044606E025E000BFFFF726FD34
:10109000001B022809D828688001F7D51BE000BF93
:1010A000FFF71CFD001B022802D90320BDE8F88FC2
:1010B00028688001F4D40EE00128F7D06868226A1D
:1010C00000F48031914204D1616A00F470108842CA
:1010D00001D00120EAE70020E8E70000001002400C
:1010E00000004242800442421C0000200070004088
:1010F00010B5401EB0F1807F01D3012010BD4FF02C
:10110000E02460610F21601701F071F80020A061F8
:1011100007202061002010BD70B590F83C20012A06
:1011200026D0012480F83C40022280F83D2003684C
:101130005A689D6822F070060A6832435A600D4B67
:1011400002689A4208D0B2F1804F05D00A4B9A4209
:1011500002D00A4B9A4204D1496825F08003194312
:10116000916080F83D40002180F83C10084670BD39
:10117000022070BD002C0140000400400008004027
:1011800010B5040003D094F83D0010B107E0012031
:1011900010BD002084F83C00204600F01FF802201B
:1011A00084F83D00211D206800F0C0FD012084F876
:1011B000460084F83E0084F83F0084F8400084F83C
:1011C000410084F8420084F8430084F8440084F825
:1011D000450084F83D00002010BD000008B50C4A11
:1011E00001680C48914207D1C16941F00201C16117
:1011F000C06900F0020009E0074A914207D1C169C5
:1012000041F00401C161C06900F00400009008BD14
:1012100000040040001002400008004090F83D101B
:10122000012901D001207047022180F83D1000689B
:101230000B49884208D0B0F1804F05D00949884257
:1012400002D00949884204D1816801F007010629CA
:1012500003D0016841F001010160002070470000E7
:10126000002C0140000400400008004001680A6AA8
:1012700041F211131A4207D10A6A9B101A4203D194
:101280000A6822F001020A60012180F83D10002066
:10129000704770B5044690F83C000025012817D02F
:1012A000012684F83C60022084F83D0020688268B2
:1012B00022F0770222F47F4282600868502838D0FA
:1012C0000DDC20284FD005DC90B3102811D14AE066
:1012D000022070BD302846D040280AD13BE060286B
:1012E0002FD070280DD0B0F5805F03D0B0F5005F2F
:1012F00012D0012584F83D60002084F83C00284687
:1013000070BDCB68D1E90121206800F04BFD206859
:10131000816841F0770109E0CB68D1E901212068BB
:1013200000F040FD2068816841F480418160E1E780
:1013300019E0CA684968206800F0E8FD502120687B
:1013400006E0CA684968206800F0F1FD6021206865
:1013500000F032FDCEE7CA684968206800F0D6FD8B
:1013600040212068F4E7226801461046F0E70000BB
:1013700000B585B0002100910191029103910068B0
:101380000B49884211D10B48816941F00401816108
:101390008069694600F004000490802000900220DB
:1013A000019003900448FFF79FFA05B000BD0000CC
:1013B00000040040001002400008014070B50446DF
:1013C00090F83C0000260D4601280FD0012084F83B
:1013D0003C006AB1042A1DD0082A2FD00C2A3FD025
:1013E0000126002084F83C00304670BD022070BD0C
:1013F000206800F0E9FC2068816941F00801816102
:101400002068816921F004018161206881692A696D
:10141000114311E0206800F0FFFC2068816941F46D
:10142000006181612068816921F4806181612068A7
:1014300081692A6941EA02218161D2E7206800F0CE
:1014400017FD2068C16941F00801C1612068C169C8
:1014500021F00401C1612068C1692A69114311E0CA
:10146000206800F031FD2068C16941F40061C1616C
:101470002068C16921F48061C1612068C1692A695D
:1014800041EA0221C161ACE710B5040003D094F831
:101490003D0010B107E0012010BD002084F83C00A1
:1014A000204600F01EF8022084F83D00211D20682F
:1014B00000F03CFC012084F8460084F83E0084F8EB
:1014C0003F0084F8400084F8410084F8420084F82A
:1014D000430084F8440084F8450084F83D0000206F
:1014E00010BD704770477047F8B50168044608683A
:1014F000CA684B6910F00F0F4FF0000559D003F088
:10150000010602F49077374365D0C10705D0D105B5
:1015100003D5616C41F001016164410705D5D9072C
:1015200003D0616C41F002016164810705D5D907E0
:1015300003D0616C41F004016164010707D502F03A
:101540002001314303D0616C41F008016164616C9A
:1015500000293AD0800604D5900602D5204600F036
:1015600027FD20684069616CC0F38010090700D432
:1015700060B3204600F0F5FC20684069400621D5A4
:101580002068143050E8001F21F0400140E80012AC
:10159000002AF5D1E06BA8B16D494163E06BFFF71C
:1015A00045F9002811D0E06B416B01B0BDE8F04077
:1015B000084783060FD593060DD52046BDE8F840B1
:1015C00000F0F6BC2046FFF78EFFF8BD2046FFF77F
:1015D0008AFF6564F8BD266B2023012E7CD1C606E8
:1015E0007AD5D60678D508684868009048694FF0E3
:1015F0000206400640D5E16B086840680004000C14
:10160000E8D0A28D8242E5D9E085886920282DD0D6
:1016100020680C3050E8001F21F4807140E800126F
:10162000002AF5D12068143050E8001F21F0010194
:1016300040E80012002AF5D12068143050E8001F5D
:1016400021F0400140E80012002AF5D184F8423030
:10165000256320680C3050E8001F21F0100140E89D
:101660000012002AF5D1E06BFFF7BDF86663A08D8C
:10167000E18D401A81B22AE0A08DE18D401A81B23D
:10168000E08D0028A6D00029A4D022680C3252E8B0
:10169000000F20F4907042E80007002FF5D1206879
:1016A000143050E8002F22F0010240E80027002FFC
:1016B000F5D184F84230256320680C3050E8002FC3
:1016C00022F0100240E80023002BF5D1666320468B
:1016D000FFF708FFF8BDFFE705062BD5150629D54E
:1016E00094F841002128F5D1A068B0F5805F01D1C0
:1016F0002069B0B1206A411C2162216800784860ED
:10170000E08C401E0004000CE084E3D12068C16836
:1017100021F08001C1602068C16841F04001C160D2
:10172000D8E7206A0088C0F308004860206A801C5F
:101730002062E5E74006CDD55006CBD5CA682046E5
:1017400022F04002CA6084F8413000F05FF9C1E73E
:10175000531F000870B5040004D094F84100002520
:1017600010B106E0012070BD84F84050204600F022
:1017700023F8242084F841002068C16821F4005136
:10178000C160204600F076FC2068016921F4904198
:1017900001612068416921F02A0141612068C16826
:1017A00041F40051C1606564202084F8410084F850
:1017B00042006563002070BD30B585B00024009400
:1017C000019402940394324D0368324802210322AB
:1017D000AB422ED1836943F480438361836903F470
:1017E00080430493836943F00803836180692A4D31
:1017F00000F0080004904020CDE900010392694602
:101800002846FFF771F88020CDE900046946284694
:101810000294FFF769F82148416841F0E06141F026
:1018200004014160002211462520FFF7C3F925205D
:1018300029E01B4DAB4228D1C36943F40033C36197
:10184000C36903F400330493836943F004038361A1
:101850008069144D00F0040004900420CDE90001DB
:10186000039269462846FFF73FF80820CDE90004B7
:10187000694628460294FFF737F8002211462620D1
:10188000FFF798F92620FFF787F905B030BD000073
:101890000038014000100240000C014000000140EF
:1018A000004400400008014090F84230202B01D055
:1018B0000220704721B11AB10023036300F036BC47
:1018C00001207047F0B400682449884244D124487C
:1018D0000678024601231179D47906250022072EC5
:1018E0002FD2DFE806F004080C1417203500FE297B
:1018F00027D1037025E0FE2907D102210EE0C17136
:101900000272032901D3032108E0027019E041713A
:10191000042103E08171032C02D90521017010E03C
:10192000057043700DE0037A402B04D20D4AD15468
:101930005B1C037200E00270D9B2E41EA14200DB1E
:101940000570F0BC06490122091D0748FFF7ACBF2E
:10195000FA29DAD14370D8E7F0BC70470044004060
:101960000000002020000020380100202DE9F8436D
:10197000044690F84100984616460D46202802D0AD
:101980000220BDE8F88385B17EB10020606421208B
:1019900084F84100FFF7A2F8A6848146E684A06897
:1019A0002027B0F5805F02D003E00120E9E720693D
:1019B00010B12E4600250EE000260CE080212046C6
:1019C00000F0CFFBA8B9C6B116F8010B216848603A
:1019D000E08C401EE084E08C4B464FF00002CDF8D6
:1019E00000800028EAD14FF04001204600F0B9FB0A
:1019F00040B184F841700320C3E735F8020BC0F30F
:101A00000800E3E784F841700020BAE77047FEE77A
:101A10002DE9F04385B000244348009401940294DA
:101A20000394816941F010018161816901F0100125
:101A30000491816941F020018161816901F02001F7
:101A40000491816941F004018161816901F004011F
:101A50000491816941F0080181618069334F00F090
:101A600008004FF460450490002229463846FFF7ED
:101A700030F8DFF8BC90002241F623114846FFF70A
:101A800028F8DFF8B08000224DF21B114046FFF726
:101A900020F80095032601250396CDE901546946F7
:101AA0003846FEF721FF40F223100227CDE900055A
:101AB000CDE9024769464846FEF716FF10208DE83B
:101AC000310069464846FEF70FFF4020CDE900048B
:101AD000694648460294FEF707FF41F21B10CDE924
:101AE0000005CDE9024769464046FEF7FDFE680362
:101AF000CDE90004694640460294FEF7F5FEB003C6
:101B0000CDE90005CDE9024669464046FEF7ECFE08
:101B1000F002CDE90005CDE9024669464846FEF7E8
:101B2000E3FE05B0BDE8F083001002400010014064
:101B300000080140000C014010B58EB0002407944D
:101B4000089409940A940B941C2168460C94FEF79F
:101B500002FB1E481C49C0E900144FF6FF71C0E9A2
:101B6000024104618461FFF70BFB08B1FEF739FE07
:101B70004FF48050079007A91448FFF78AFB08B17B
:101B8000FEF72FFE1148FFF77FFC08B1FEF729FE94
:101B90000B940BA90D480C94FFF7BEFA08B1FEF7A1
:101BA00020FE6020CDE90004029404226946074823
:101BB0000494FFF703FC08B1FEF713FE0348FFF798
:101BC000D7FB0EB010BD00000004004060000020F4
:101BD00010B586B000241748009401940294039431
:101BE00004941349059401604721C0E901144FF69C
:101BF000FF71C0E903148461FFF7C2FA08B1FEF770
:101C0000F0FD4FF48050009069460A48FFF741FB11
:101C100008B1FEF7E6FD049404A906480594FFF711
:101C20007BFA002801D0FEF7DCFD06B010BD0000F5
:101C300000080040A80000200C4810B50A490160C7
:101C40004FF4E1314160002181600C22C160C0E9A4
:101C500004128161C161FFF77DFD002803D0BDE85A
:101C60001040FEF7BEBD10BD00380140F00000205E
:101C70000C4810B50A4901604FF4E1314160002180
:101C800081600C22C160C0E904128161C161FFF76B
:101C900061FD002803D0BDE81040FEF7A2BD10BDD5
:101CA0000044004038010020FEE7FEE770470000D6
:101CB0000A4601464FF47A730148FFF757BE000009
:101CC000380100207047FEF70FBF30B58FB02821D4
:101CD0006846FEF740FA14210AA8FEF73CFA0121F3
:101CE0000804CDE900100024029402250491CDE9F6
:101CF00007504FF4E01009906846FFF769F808B103
:101D000072B6FEE70F20CDE90A054FF48060CDE9F9
:101D10000C4002210AA80E94FEF77EFF002801D095
:101D200072B6FEE70FB030BD70470000F0B5026834
:101D3000194B1A4C1A4D4FF08047984205D0B842C3
:101D400003D0A04201D0A84203D122F070064A6815
:101D50003243984205D0B84203D0A04201D0A842F5
:101D600003D122F44074CA6822434C6922F08002F5
:101D7000224302608A68C2620A688262984201D184
:101D800009690163012141610169C90703D0016942
:101D900021F001010161F0BD002C01400004004070
:101DA0000008004010B5846842EA032224F47F440E
:101DB0000A432243826010BD826822F070020A4307
:101DC00042F007018160704730B5036A026A22F071
:101DD000010202624268846924F073050C682C4396
:101DE00023F002058B682B430A4DA8420BD123F048
:101DF0000805CB6822F440722B434D6923F004039D
:101E000015438A692A4342608461496841630362D9
:101E100030BD0000002C014030B5026A036A23F097
:101E200010030362436884690D6824F4E64444EABD
:101E300005248D6822F0200242EA05120B4DA842CB
:101E40000ED1CD6822F0800242EA05124D6923F4DA
:101E5000406343EA85038D6922F0400243EA85032B
:101E60004360846149688163026230BD002C014097
:101E700030B5036A026A22F4807202624268C46961
:101E800023F4007324F073050C682C438D6843EA37
:101E900005230C4DA8420ED1CD6823F4006343EA1C
:101EA00005234D6922F4405242EA05128D6923F45C
:101EB000806342EA05124260C4614968C1630362FB
:101EC00030BD0000002C014030B5046A026A22F4E3
:101ED000805202624268C3690D6823F4E64343EA14
:101EE00005238D6824F4005444EA0534064DA842C5
:101EF00004D14D6922F4804242EA85124260C361F6
:101F000049680164046230BD002C014010B5036AC9
:101F1000046A24F001040462846924F0F00444EAB1
:101F2000021423F00A020A438461026210BD10B554
:101F3000036A046A24F010040462846923F0A00395
:101F400024F4704444EA023243EA011182610162DE
:101F500010BD10B5406A0021C185C184FFF7C3FAE6
:101F600010BD01680C3151E8002F22F4907241E855
:101F70000023002BF5D10168143151E8002F22F025
:101F8000010241E80023002BF5D1016B012909D1A1
:101F900001680C3151E8002F22F0100241E80023C3
:101FA000002BF5D1202180F84210002101637047F9
:101FB00008B590F84210222901D0022008BD82689D
:101FC0004FF480539A4201D1016921B1816A9A424A
:101FD0001BD04AB10AE00268816A5268C2F3080263
:101FE0000A80816A891C08E0026972B1026852683D
:101FF00002F07F020A70816A491C8162C18D491E0C
:102000000904090CC18503D01BE002685268F1E79E
:102010000168CA6822F02002CA600168CA6822F416
:102020008072CA6001684A6922F001024A61202177
:1020300080F8421000214163026B012A03D0FFF7B0
:1020400041FC002008BD016301680C3151E8002FFC
:1020500022F0100241E80023002BF5D101680A6844
:10206000D20602D50A6849680091818DFFF73AFAD5
:10207000E7E7000070B5044600680169E26821F4F2
:102080004051114301612169A06808436169084317
:102090002168CA6841F20C639A430243CA6020680F
:1020A0004169A26921F44071114341611E492068D0
:1020B000884202D1FEF756FE01E0FEF743FE00EB38
:1020C000C00101EB0012606864218000B2FBF0F3F4
:1020D000B3FBF1F36FF018067343B2FBF0F5B2FBFC
:1020E000F0F605EB8305322303EB0515B5FBF1F59F
:1020F000B6FBF1F605F0F00505EB0615B2FBF0F6C0
:10210000B2FBF0F0B0FBF1F06FF01802504306EBB9
:10211000800003EB0010B0FBF1F0216800F00F002D
:102120002844886070BD00000038014081628285CB
:10213000C28500214164222180F84210016921B149
:102140000168CA6842F48072CA6001684A6942F054
:1021500001024A610068C16841F02001C1600020AD
:1021600070472DE9F843984617460D460446089EE9
:1021700024E0701C22D0FEF7B1FCA0EB0800B042B6
:102180001AD8CEB12068C168490717D5802D15D05F
:10219000402D13D00168C94309070FD401680025F9
:1021A000406800902046FFF7DCFE0820606484F859
:1021B00040500120BDE8F8830320FBE72068006859
:1021C00035EA000004D00020B842D2D00020F1E768
:1021D0000120F9E70148FFF787B90000F00000206F
:1021E0000148FFF781B9000038010020FEE7090728
:1021F000090E002804DB00F1E02080F8001470478D
:1022000000F00F0000F1E02080F8141D704702E09C
:1022100008C8121F08C1002AFAD170477047002071
:1022200001E001C1121F002AFBD17047FEF764FCD8
:10223000FFF74BFDFFF7ECFBFFF7FEFCFFF718FD88
:10224000FFF7C6FCFFF778FC0020FEF75BF80120E3
:10225000FEF758F80220FEF755F809210020FEF796
:1022600075F909210120FEF771F909210220FEF715
:102270006DF92148FEF7D2FF012220492048FFF7DF
:1022800013FB1E4C0025241FDFF878801E4FE570DD
:102290000126607810B100F039F8657001214046E0
:1022A000FEF712FC0028F4D1E07870B1012817D0B5
:1022B0000228EED1FEF7E8F83946FDF757FFFDF7A3
:1022C0009CFFE081E570A670E3E70020FEF7DCF8F4
:1022D0003946FDF74BFFFDF790FF6081E670D8E7C8
:1022E0000120FEF7D1F83946FDF740FFFDF785FFE5
:1022F000A0810220E070CCE7A800002004000020AC
:1023000038010020000801400000C842F0B53B4DF4
:1023100085B00024294600940A7A39490127A87912
:1023200009783E46042804D0052816D0062828D06F
:1023300055E0E2B33348012906D039B18DF80040A9
:102340006A463946042048E0012200E000220121CB
:10235000FEF7BFFB8DF80060F2E742B32A4801297F
:1023600006D039B18DF800406A463946052034E080
:10237000012200E000220121FEF7ABFB8DF8006096
:10238000F2E7FDF79DFF8DF80400A87850B3B5F98A
:102390000A10642061B391FBF0F1C9B28DF8051009
:1023A000B5F90C1031B391FBF0F1C9B200E016E0C1
:1023B0008DF80610B5F90E10F1B191FBF0F0C0B236
:1023C0008DF808408DF809408DF807008DF80A4017
:1023D0008DF80B4001AA0821062000F017F82C7296
:1023E00005B0F0BDFF208DF805008DF80600E7E789
:1023F000FF21D3E7FF21D9E7FF20E1E7000000201C
:1024000020000020000C01400008014030B591B0D0
:102410000C464FF0FE018DF800108DF8011004F10C
:1024200003018DF802100E4913006D4649798DF8AD
:1024300003108DF804004FF0050107D034B1224697
:102440001946681DFDF76EFE641DE1B2FA2068545E
:10245000491CC9B26846FFF72BFC11B030BD000023
:1024600000000020010202030405060708090A0B08
:102470000C0D0E0F10100000000000000000010203
:10248000030406070809000000000102030400001D
:10249000B024000800000020200000000E220008E8
:1024A000D024000820000020600500001E22000843
:1024B000000000000000000000000000000000001C
:1024C00001000000100000000000000000127A006F
:04000005080000ED02
:00000001FF
